{
  "_format": "hh-sol-artifact-1",
  "contractName": "BundledScoresPool",
  "sourceName": "contracts/pools/bundledScoresPool.sol",
  "abi": [
    {
      "inputs": [
        {
          "internalType": "address",
          "name": "upalaAddress",
          "type": "address"
        },
        {
          "internalType": "address",
          "name": "approvedTokenAddress",
          "type": "address"
        },
        {
          "internalType": "address",
          "name": "poolManager",
          "type": "address"
        }
      ],
      "stateMutability": "nonpayable",
      "type": "constructor"
    },
    {
      "anonymous": false,
      "inputs": [
        {
          "indexed": false,
          "internalType": "string",
          "name": "metadata",
          "type": "string"
        }
      ],
      "name": "MetaDataUpdate",
      "type": "event"
    },
    {
      "anonymous": false,
      "inputs": [
        {
          "indexed": false,
          "internalType": "uint256",
          "name": "newBaseScore",
          "type": "uint256"
        }
      ],
      "name": "NewBaseScore",
      "type": "event"
    },
    {
      "anonymous": false,
      "inputs": [
        {
          "indexed": false,
          "internalType": "bytes32",
          "name": "newScoreBundleId",
          "type": "bytes32"
        },
        {
          "indexed": false,
          "internalType": "uint256",
          "name": "timestamp",
          "type": "uint256"
        }
      ],
      "name": "NewScoreBundleId",
      "type": "event"
    },
    {
      "anonymous": false,
      "inputs": [
        {
          "indexed": true,
          "internalType": "address",
          "name": "previousOwner",
          "type": "address"
        },
        {
          "indexed": true,
          "internalType": "address",
          "name": "newOwner",
          "type": "address"
        }
      ],
      "name": "OwnershipTransferred",
      "type": "event"
    },
    {
      "anonymous": false,
      "inputs": [
        {
          "indexed": false,
          "internalType": "bytes32",
          "name": "newScoreBundleId",
          "type": "bytes32"
        }
      ],
      "name": "ScoreBundleIdDeleted",
      "type": "event"
    },
    {
      "inputs": [],
      "name": "approvedToken",
      "outputs": [
        {
          "internalType": "contract IERC20",
          "name": "",
          "type": "address"
        }
      ],
      "stateMutability": "view",
      "type": "function"
    },
    {
      "inputs": [
        {
          "internalType": "address",
          "name": "upalaID",
          "type": "address"
        },
        {
          "internalType": "address",
          "name": "scoreAssignedTo",
          "type": "address"
        },
        {
          "internalType": "uint8",
          "name": "score",
          "type": "uint8"
        },
        {
          "internalType": "bytes32",
          "name": "bundleId",
          "type": "bytes32"
        },
        {
          "internalType": "bytes",
          "name": "proof",
          "type": "bytes"
        }
      ],
      "name": "attack",
      "outputs": [
        {
          "internalType": "uint256",
          "name": "",
          "type": "uint256"
        }
      ],
      "stateMutability": "nonpayable",
      "type": "function"
    },
    {
      "inputs": [],
      "name": "baseScore",
      "outputs": [
        {
          "internalType": "uint256",
          "name": "",
          "type": "uint256"
        }
      ],
      "stateMutability": "view",
      "type": "function"
    },
    {
      "inputs": [
        {
          "internalType": "bytes32",
          "name": "scoreBundleId",
          "type": "bytes32"
        }
      ],
      "name": "getScoreBundleIdTimestamp",
      "outputs": [
        {
          "internalType": "uint256",
          "name": "",
          "type": "uint256"
        }
      ],
      "stateMutability": "view",
      "type": "function"
    },
    {
      "inputs": [],
      "name": "groupBaseScore",
      "outputs": [
        {
          "internalType": "uint256",
          "name": "",
          "type": "uint256"
        }
      ],
      "stateMutability": "view",
      "type": "function"
    },
    {
      "inputs": [],
      "name": "metaData",
      "outputs": [
        {
          "internalType": "string",
          "name": "",
          "type": "string"
        }
      ],
      "stateMutability": "view",
      "type": "function"
    },
    {
      "inputs": [
        {
          "internalType": "address",
          "name": "upalaID",
          "type": "address"
        },
        {
          "internalType": "address",
          "name": "scoreAssignedTo",
          "type": "address"
        },
        {
          "internalType": "uint8",
          "name": "score",
          "type": "uint8"
        },
        {
          "internalType": "bytes32",
          "name": "bundleId",
          "type": "bytes32"
        },
        {
          "internalType": "bytes",
          "name": "proof",
          "type": "bytes"
        }
      ],
      "name": "myScore",
      "outputs": [
        {
          "internalType": "uint256",
          "name": "",
          "type": "uint256"
        }
      ],
      "stateMutability": "view",
      "type": "function"
    },
    {
      "inputs": [],
      "name": "owner",
      "outputs": [
        {
          "internalType": "address",
          "name": "",
          "type": "address"
        }
      ],
      "stateMutability": "view",
      "type": "function"
    },
    {
      "inputs": [
        {
          "internalType": "bytes32",
          "name": "newBundleId",
          "type": "bytes32"
        }
      ],
      "name": "publishScoreBundleId",
      "outputs": [
        {
          "internalType": "uint256",
          "name": "",
          "type": "uint256"
        }
      ],
      "stateMutability": "nonpayable",
      "type": "function"
    },
    {
      "inputs": [],
      "name": "renounceOwnership",
      "outputs": [],
      "stateMutability": "nonpayable",
      "type": "function"
    },
    {
      "inputs": [
        {
          "internalType": "bytes32",
          "name": "",
          "type": "bytes32"
        }
      ],
      "name": "scoreBundleTimestamp",
      "outputs": [
        {
          "internalType": "uint256",
          "name": "",
          "type": "uint256"
        }
      ],
      "stateMutability": "view",
      "type": "function"
    },
    {
      "inputs": [
        {
          "internalType": "address",
          "name": "newOwner",
          "type": "address"
        }
      ],
      "name": "transferOwnership",
      "outputs": [],
      "stateMutability": "nonpayable",
      "type": "function"
    },
    {
      "inputs": [],
      "name": "upala",
      "outputs": [
        {
          "internalType": "contract Upala",
          "name": "",
          "type": "address"
        }
      ],
      "stateMutability": "view",
      "type": "function"
    },
    {
      "inputs": [
        {
          "internalType": "string",
          "name": "newMetadata",
          "type": "string"
        }
      ],
      "name": "updateMetadata",
      "outputs": [],
      "stateMutability": "nonpayable",
      "type": "function"
    },
    {
      "inputs": [
        {
          "internalType": "address",
          "name": "userAddress",
          "type": "address"
        },
        {
          "internalType": "address",
          "name": "upalaID",
          "type": "address"
        },
        {
          "internalType": "address",
          "name": "scoreAssignedTo",
          "type": "address"
        },
        {
          "internalType": "uint8",
          "name": "score",
          "type": "uint8"
        },
        {
          "internalType": "bytes32",
          "name": "bundleId",
          "type": "bytes32"
        },
        {
          "internalType": "bytes",
          "name": "proof",
          "type": "bytes"
        }
      ],
      "name": "userScore",
      "outputs": [
        {
          "internalType": "uint256",
          "name": "",
          "type": "uint256"
        }
      ],
      "stateMutability": "view",
      "type": "function"
    }
  ],
  "bytecode": "0x60806040523480156200001157600080fd5b506040516200238d3803806200238d833981810160405281019062000037919062000315565b620000576200004b620000f360201b60201c565b620000fb60201b60201c565b82600160006101000a81548173ffffffffffffffffffffffffffffffffffffffff021916908373ffffffffffffffffffffffffffffffffffffffff16021790555081600260006101000a81548173ffffffffffffffffffffffffffffffffffffffff021916908373ffffffffffffffffffffffffffffffffffffffff160217905550620000ea81620001bf60201b60201c565b505050620004b8565b600033905090565b60008060009054906101000a900473ffffffffffffffffffffffffffffffffffffffff169050816000806101000a81548173ffffffffffffffffffffffffffffffffffffffff021916908373ffffffffffffffffffffffffffffffffffffffff1602179055508173ffffffffffffffffffffffffffffffffffffffff168173ffffffffffffffffffffffffffffffffffffffff167f8be0079c531659141344cd1fd0a4f28419497f9722a3daafe3b4186f6b6457e060405160405180910390a35050565b620001cf620000f360201b60201c565b73ffffffffffffffffffffffffffffffffffffffff16620001f5620002d560201b60201c565b73ffffffffffffffffffffffffffffffffffffffff16146200024e576040517f08c379a0000000000000000000000000000000000000000000000000000000008152600401620002459062000437565b60405180910390fd5b600073ffffffffffffffffffffffffffffffffffffffff168173ffffffffffffffffffffffffffffffffffffffff161415620002c1576040517f08c379a0000000000000000000000000000000000000000000000000000000008152600401620002b89062000415565b60405180910390fd5b620002d281620000fb60201b60201c565b50565b60008060009054906101000a900473ffffffffffffffffffffffffffffffffffffffff16905090565b6000815190506200030f816200049e565b92915050565b6000806000606084860312156200032b57600080fd5b60006200033b86828701620002fe565b93505060206200034e86828701620002fe565b92505060406200036186828701620002fe565b9150509250925092565b60006200037a60268362000459565b91507f4f776e61626c653a206e6577206f776e657220697320746865207a65726f206160008301527f64647265737300000000000000000000000000000000000000000000000000006020830152604082019050919050565b6000620003e260208362000459565b91507f4f776e61626c653a2063616c6c6572206973206e6f7420746865206f776e65726000830152602082019050919050565b6000602082019050818103600083015262000430816200036b565b9050919050565b600060208201905081810360008301526200045281620003d3565b9050919050565b600082825260208201905092915050565b600062000477826200047e565b9050919050565b600073ffffffffffffffffffffffffffffffffffffffff82169050919050565b620004a9816200046a565b8114620004b557600080fd5b50565b611ec580620004c86000396000f3fe608060405234801561001057600080fd5b50600436106100f55760003560e01c80638da5cb5b11610097578063baf2a4eb11610066578063baf2a4eb14610288578063cfb559ce146102a6578063f2fde38b146102c4578063fff9de76146102e0576100f5565b80638da5cb5b146102125780638df8a7d714610230578063918b5be11461024e578063bab462591461026a576100f5565b80635f0a422c116100d35780635f0a422c1461018a57806361f1acc5146101a8578063715018a6146101d85780638d48067d146101e2576100f5565b80630958ef80146100fa5780630bfde4e01461012a578063398d29aa1461015a575b600080fd5b610114600480360381019061010f9190611437565b610310565b6040516101219190611b6d565b60405180910390f35b610144600480360381019061013f9190611437565b610370565b6040516101519190611b6d565b60405180910390f35b610174600480360381019061016f91906114f2565b61048d565b6040516101819190611b6d565b60405180910390f35b6101926104a5565b60405161019f91906119ec565b60405180910390f35b6101c260048036038101906101bd91906114f2565b6104cb565b6040516101cf9190611b6d565b60405180910390f35b6101e06105f8565b005b6101fc60048036038101906101f791906114f2565b610680565b6040516102099190611b6d565b60405180910390f35b61021a61069d565b604051610227919061193b565b60405180910390f35b6102386106c6565b6040516102459190611b6d565b60405180910390f35b6102686004803603810190610263919061151b565b6106d0565b005b61027261079b565b60405161027f91906119d1565b60405180910390f35b6102906107c1565b60405161029d9190611a2b565b60405180910390f35b6102ae61084f565b6040516102bb9190611b6d565b60405180910390f35b6102de60048036038101906102d9919061133e565b610855565b005b6102fa60048036038101906102f59190611390565b61094d565b6040516103079190611b6d565b60405180910390f35b6000610364338888888888888080601f016020809104026020016040519081016040528093929190818152602001838380828437600081840152601f19601f820116905080830192505050505050506109ae565b90509695505050505050565b6000806103c5338989898989898080601f016020809104026020016040519081016040528093929190818152602001838380828437600081840152601f19601f820116905080830192505050505050506109ae565b9050600160009054906101000a900473ffffffffffffffffffffffffffffffffffffffff1673ffffffffffffffffffffffffffffffffffffffff16632b7c7f5d896040518263ffffffff1660e01b8152600401610422919061193b565b602060405180830381600087803b15801561043c57600080fd5b505af1158015610450573d6000803e3d6000fd5b505050506040513d601f19601f8201168201806040525081019061047491906114c9565b5061047f3382610cd8565b809150509695505050505050565b60056020528060005260406000206000915090505481565b600160009054906101000a900473ffffffffffffffffffffffffffffffffffffffff1681565b60006104d5610eec565b73ffffffffffffffffffffffffffffffffffffffff166104f361069d565b73ffffffffffffffffffffffffffffffffffffffff1614610549576040517f08c379a000000000000000000000000000000000000000000000000000000000815260040161054090611aed565b60405180910390fd5b600060056000848152602001908152602001600020541461059f576040517f08c379a000000000000000000000000000000000000000000000000000000000815260040161059690611a8d565b60405180910390fd5b4260056000848152602001908152602001600020819055507f1d9d11462460537d0d7d0c52cad7b9fe71d5f6c355a203ac3108726d45034f6182426040516105e89291906119a8565b60405180910390a1429050919050565b610600610eec565b73ffffffffffffffffffffffffffffffffffffffff1661061e61069d565b73ffffffffffffffffffffffffffffffffffffffff1614610674576040517f08c379a000000000000000000000000000000000000000000000000000000000815260040161066b90611aed565b60405180910390fd5b61067e6000610ef4565b565b600060056000838152602001908152602001600020549050919050565b60008060009054906101000a900473ffffffffffffffffffffffffffffffffffffffff16905090565b6000600454905090565b6106d8610eec565b73ffffffffffffffffffffffffffffffffffffffff166106f661069d565b73ffffffffffffffffffffffffffffffffffffffff161461074c576040517f08c379a000000000000000000000000000000000000000000000000000000000815260040161074390611aed565b60405180910390fd5b81816003919061075d929190611174565b507f93a0a8e1df6c9fbfb6b9c76b67ccb1ccf6c84d3b89bf614f4837d57100590592828260405161078f929190611a07565b60405180910390a15050565b600260009054906101000a900473ffffffffffffffffffffffffffffffffffffffff1681565b600380546107ce90611d4c565b80601f01602080910402602001604051908101604052809291908181526020018280546107fa90611d4c565b80156108475780601f1061081c57610100808354040283529160200191610847565b820191906000526020600020905b81548152906001019060200180831161082a57829003601f168201915b505050505081565b60045481565b61085d610eec565b73ffffffffffffffffffffffffffffffffffffffff1661087b61069d565b73ffffffffffffffffffffffffffffffffffffffff16146108d1576040517f08c379a00000000000000000000000000000000000000000000000000000000081526004016108c890611aed565b60405180910390fd5b600073ffffffffffffffffffffffffffffffffffffffff168173ffffffffffffffffffffffffffffffffffffffff161415610941576040517f08c379a000000000000000000000000000000000000000000000000000000000815260040161093890611a4d565b60405180910390fd5b61094a81610ef4565b50565b60006109a1888888888888888080601f016020809104026020016040519081016040528093929190818152602001838380828437600081840152601f19601f820116905080830192505050505050506109ae565b9050979650505050505050565b600080600454116109f4576040517f08c379a00000000000000000000000000000000000000000000000000000000081526004016109eb90611b2d565b60405180910390fd5b6000600560008581526020019081526020016000205411610a4a576040517f08c379a0000000000000000000000000000000000000000000000000000000008152600401610a4190611a6d565b60405180910390fd5b600160009054906101000a900473ffffffffffffffffffffffffffffffffffffffff1673ffffffffffffffffffffffffffffffffffffffff16631225458288886040518363ffffffff1660e01b8152600401610aa7929190611956565b60206040518083038186803b158015610abf57600080fd5b505afa158015610ad3573d6000803e3d6000fd5b505050506040513d601f19601f82011682018060405250810190610af791906114c9565b508573ffffffffffffffffffffffffffffffffffffffff168573ffffffffffffffffffffffffffffffffffffffff1614158015610b6057508673ffffffffffffffffffffffffffffffffffffffff168573ffffffffffffffffffffffffffffffffffffffff1614155b15610c1457600160009054906101000a900473ffffffffffffffffffffffffffffffffffffffff1673ffffffffffffffffffffffffffffffffffffffff16631225458286886040518363ffffffff1660e01b8152600401610bc2929190611956565b60206040518083038186803b158015610bda57600080fd5b505afa158015610bee573d6000803e3d6000fd5b505050506040513d601f19601f82011682018060405250810190610c1291906114c9565b505b6000610c2e8560ff16600454610fb890919063ffffffff16565b9050610c3981610fce565b610c78576040517f08c379a0000000000000000000000000000000000000000000000000000000008152600401610c6f90611b0d565b60405180910390fd5b60011515610c8887878787611085565b151514610cca576040517f08c379a0000000000000000000000000000000000000000000000000000000008152600401610cc190611b4d565b60405180910390fd5b809150509695505050505050565b6000610da26064610d94600160009054906101000a900473ffffffffffffffffffffffffffffffffffffffff1673ffffffffffffffffffffffffffffffffffffffff1663e600375b6040518163ffffffff1660e01b815260040160206040518083038186803b158015610d4a57600080fd5b505afa158015610d5e573d6000803e3d6000fd5b505050506040513d601f19601f82011682018060405250810190610d829190611589565b60ff1685610fb890919063ffffffff16565b61108f90919063ffffffff16565b9050610dc083610dbb83856110a590919063ffffffff16565b6110bb565b610dff576040517f08c379a0000000000000000000000000000000000000000000000000000000008152600401610df690611aad565b60405180910390fd5b610ea8600160009054906101000a900473ffffffffffffffffffffffffffffffffffffffff1673ffffffffffffffffffffffffffffffffffffffff166361d027b36040518163ffffffff1660e01b815260040160206040518083038186803b158015610e6a57600080fd5b505afa158015610e7e573d6000803e3d6000fd5b505050506040513d601f19601f82011682018060405250810190610ea29190611367565b826110bb565b610ee7576040517f08c379a0000000000000000000000000000000000000000000000000000000008152600401610ede90611acd565b60405180910390fd5b505050565b600033905090565b60008060009054906101000a900473ffffffffffffffffffffffffffffffffffffffff169050816000806101000a81548173ffffffffffffffffffffffffffffffffffffffff021916908373ffffffffffffffffffffffffffffffffffffffff1602179055508173ffffffffffffffffffffffffffffffffffffffff168173ffffffffffffffffffffffffffffffffffffffff167f8be0079c531659141344cd1fd0a4f28419497f9722a3daafe3b4186f6b6457e060405160405180910390a35050565b60008183610fc69190611bd5565b905092915050565b600081600260009054906101000a900473ffffffffffffffffffffffffffffffffffffffff1673ffffffffffffffffffffffffffffffffffffffff166370a08231306040518263ffffffff1660e01b815260040161102c919061193b565b60206040518083038186803b15801561104457600080fd5b505afa158015611058573d6000803e3d6000fd5b505050506040513d601f19601f8201168201806040525081019061107c9190611560565b10159050919050565b6000949350505050565b6000818361109d9190611ba4565b905092915050565b600081836110b39190611c2f565b905092915050565b6000600260009054906101000a900473ffffffffffffffffffffffffffffffffffffffff1673ffffffffffffffffffffffffffffffffffffffff1663a9059cbb84846040518363ffffffff1660e01b815260040161111a92919061197f565b602060405180830381600087803b15801561113457600080fd5b505af1158015611148573d6000803e3d6000fd5b505050506040513d601f19601f8201168201806040525081019061116c91906114c9565b905092915050565b82805461118090611d4c565b90600052602060002090601f0160209004810192826111a257600085556111e9565b82601f106111bb57803560ff19168380011785556111e9565b828001600101855582156111e9579182015b828111156111e85782358255916020019190600101906111cd565b5b5090506111f691906111fa565b5090565b5b808211156112135760008160009055506001016111fb565b5090565b60008135905061122681611e1c565b92915050565b60008151905061123b81611e1c565b92915050565b60008151905061125081611e33565b92915050565b60008135905061126581611e4a565b92915050565b60008083601f84011261127d57600080fd5b8235905067ffffffffffffffff81111561129657600080fd5b6020830191508360018202830111156112ae57600080fd5b9250929050565b60008083601f8401126112c757600080fd5b8235905067ffffffffffffffff8111156112e057600080fd5b6020830191508360018202830111156112f857600080fd5b9250929050565b60008151905061130e81611e61565b92915050565b60008135905061132381611e78565b92915050565b60008151905061133881611e78565b92915050565b60006020828403121561135057600080fd5b600061135e84828501611217565b91505092915050565b60006020828403121561137957600080fd5b60006113878482850161122c565b91505092915050565b600080600080600080600060c0888a0312156113ab57600080fd5b60006113b98a828b01611217565b97505060206113ca8a828b01611217565b96505060406113db8a828b01611217565b95505060606113ec8a828b01611314565b94505060806113fd8a828b01611256565b93505060a088013567ffffffffffffffff81111561141a57600080fd5b6114268a828b0161126b565b925092505092959891949750929550565b60008060008060008060a0878903121561145057600080fd5b600061145e89828a01611217565b965050602061146f89828a01611217565b955050604061148089828a01611314565b945050606061149189828a01611256565b935050608087013567ffffffffffffffff8111156114ae57600080fd5b6114ba89828a0161126b565b92509250509295509295509295565b6000602082840312156114db57600080fd5b60006114e984828501611241565b91505092915050565b60006020828403121561150457600080fd5b600061151284828501611256565b91505092915050565b6000806020838503121561152e57600080fd5b600083013567ffffffffffffffff81111561154857600080fd5b611554858286016112b5565b92509250509250929050565b60006020828403121561157257600080fd5b6000611580848285016112ff565b91505092915050565b60006020828403121561159b57600080fd5b60006115a984828501611329565b91505092915050565b6115bb81611c63565b82525050565b6115ca81611c81565b82525050565b6115d981611cc2565b82525050565b6115e881611ce6565b82525050565b60006115fa8385611b93565b9350611607838584611d0a565b61161083611e0b565b840190509392505050565b600061162682611b88565b6116308185611b93565b9350611640818560208601611d19565b61164981611e0b565b840191505092915050565b6000611661602683611b93565b91507f4f776e61626c653a206e6577206f776e657220697320746865207a65726f206160008301527f64647265737300000000000000000000000000000000000000000000000000006020830152604082019050919050565b60006116c7602f83611b93565b91507f50726f76696465642073636f72652062756e646c6520646f6573206e6f74206560008301527f78697374206f722064656c6574656400000000000000000000000000000000006020830152604082019050919050565b600061172d601e83611b93565b91507f53636f72652062756e646c6520696420616c72656164792065786973747300006000830152602082019050919050565b600061176d601c83611b93565b91507f546f6b656e207472616e7366657220746f20626f74206661696c6564000000006000830152602082019050919050565b60006117ad601d83611b93565b91507f4578706c6f73696f6e20666565207472616e73666572206661696c65640000006000830152602082019050919050565b60006117ed602083611b93565b91507f4f776e61626c653a2063616c6c6572206973206e6f7420746865206f776e65726000830152602082019050919050565b600061182d602a83611b93565b91507f506f6f6c2062616c616e6365206973206c6f776572207468616e20746865207460008301527f6f74616c2073636f7265000000000000000000000000000000000000000000006020830152604082019050919050565b6000611893601383611b93565b91507f506f6f6c206261736553636f72652069732030000000000000000000000000006000830152602082019050919050565b60006118d3603f83611b93565b91507f43616e27742076616c696461746520746861742073636f726541737369676e6560008301527f64546f2d73636f7265207061697220697320696e207468652062756e646c65006020830152604082019050919050565b61193581611cab565b82525050565b600060208201905061195060008301846115b2565b92915050565b600060408201905061196b60008301856115b2565b61197860208301846115b2565b9392505050565b600060408201905061199460008301856115b2565b6119a1602083018461192c565b9392505050565b60006040820190506119bd60008301856115c1565b6119ca602083018461192c565b9392505050565b60006020820190506119e660008301846115d0565b92915050565b6000602082019050611a0160008301846115df565b92915050565b60006020820190508181036000830152611a228184866115ee565b90509392505050565b60006020820190508181036000830152611a45818461161b565b905092915050565b60006020820190508181036000830152611a6681611654565b9050919050565b60006020820190508181036000830152611a86816116ba565b9050919050565b60006020820190508181036000830152611aa681611720565b9050919050565b60006020820190508181036000830152611ac681611760565b9050919050565b60006020820190508181036000830152611ae6816117a0565b9050919050565b60006020820190508181036000830152611b06816117e0565b9050919050565b60006020820190508181036000830152611b2681611820565b9050919050565b60006020820190508181036000830152611b4681611886565b9050919050565b60006020820190508181036000830152611b66816118c6565b9050919050565b6000602082019050611b82600083018461192c565b92915050565b600081519050919050565b600082825260208201905092915050565b6000611baf82611cab565b9150611bba83611cab565b925082611bca57611bc9611dad565b5b828204905092915050565b6000611be082611cab565b9150611beb83611cab565b9250817fffffffffffffffffffffffffffffffffffffffffffffffffffffffffffffffff0483118215151615611c2457611c23611d7e565b5b828202905092915050565b6000611c3a82611cab565b9150611c4583611cab565b925082821015611c5857611c57611d7e565b5b828203905092915050565b6000611c6e82611c8b565b9050919050565b60008115159050919050565b6000819050919050565b600073ffffffffffffffffffffffffffffffffffffffff82169050919050565b6000819050919050565b600060ff82169050919050565b6000611ccd82611cd4565b9050919050565b6000611cdf82611c8b565b9050919050565b6000611cf182611cf8565b9050919050565b6000611d0382611c8b565b9050919050565b82818337600083830152505050565b60005b83811015611d37578082015181840152602081019050611d1c565b83811115611d46576000848401525b50505050565b60006002820490506001821680611d6457607f821691505b60208210811415611d7857611d77611ddc565b5b50919050565b7f4e487b7100000000000000000000000000000000000000000000000000000000600052601160045260246000fd5b7f4e487b7100000000000000000000000000000000000000000000000000000000600052601260045260246000fd5b7f4e487b7100000000000000000000000000000000000000000000000000000000600052602260045260246000fd5b6000601f19601f8301169050919050565b611e2581611c63565b8114611e3057600080fd5b50565b611e3c81611c75565b8114611e4757600080fd5b50565b611e5381611c81565b8114611e5e57600080fd5b50565b611e6a81611cab565b8114611e7557600080fd5b50565b611e8181611cb5565b8114611e8c57600080fd5b5056fea264697066735822122081df63437a9f7874f730d64a988587388f8389d37d7951d789681a7bc73860a764736f6c63430008000033",
  "linkReferences": {},
  "deployedLinkReferences": {}
}