{
  "_format": "hh-sol-artifact-1",
  "contractName": "Upala",
  "sourceName": "contracts/protocol/upala.sol",
  "abi": [
    {
      "anonymous": false,
      "inputs": [
        {
          "indexed": false,
          "internalType": "address",
          "name": "upalaId",
          "type": "address"
        },
        {
          "indexed": false,
          "internalType": "address",
          "name": "delegate",
          "type": "address"
        }
      ],
      "name": "DelegateDeleted",
      "type": "event"
    },
    {
      "anonymous": false,
      "inputs": [
        {
          "indexed": false,
          "internalType": "address",
          "name": "upalaId",
          "type": "address"
        }
      ],
      "name": "Liquidated",
      "type": "event"
    },
    {
      "anonymous": false,
      "inputs": [
        {
          "indexed": false,
          "internalType": "uint256",
          "name": "newWindow",
          "type": "uint256"
        }
      ],
      "name": "NewAttackWindow",
      "type": "event"
    },
    {
      "anonymous": false,
      "inputs": [
        {
          "indexed": false,
          "internalType": "address",
          "name": "upalaId",
          "type": "address"
        },
        {
          "indexed": false,
          "internalType": "address",
          "name": "delegate",
          "type": "address"
        }
      ],
      "name": "NewCandidateDelegate",
      "type": "event"
    },
    {
      "anonymous": false,
      "inputs": [
        {
          "indexed": false,
          "internalType": "address",
          "name": "dappAddress",
          "type": "address"
        },
        {
          "indexed": false,
          "internalType": "bool",
          "name": "isRegistered",
          "type": "bool"
        }
      ],
      "name": "NewDAppStatus",
      "type": "event"
    },
    {
      "anonymous": false,
      "inputs": [
        {
          "indexed": false,
          "internalType": "address",
          "name": "upalaId",
          "type": "address"
        },
        {
          "indexed": false,
          "internalType": "address",
          "name": "delegate",
          "type": "address"
        }
      ],
      "name": "NewDelegate",
      "type": "event"
    },
    {
      "anonymous": false,
      "inputs": [
        {
          "indexed": false,
          "internalType": "uint256",
          "name": "newWindow",
          "type": "uint256"
        }
      ],
      "name": "NewExecutionWindow",
      "type": "event"
    },
    {
      "anonymous": false,
      "inputs": [
        {
          "indexed": false,
          "internalType": "uint8",
          "name": "newFee",
          "type": "uint8"
        }
      ],
      "name": "NewExplosionFeePercent",
      "type": "event"
    },
    {
      "anonymous": false,
      "inputs": [
        {
          "indexed": false,
          "internalType": "address",
          "name": "upalaId",
          "type": "address"
        },
        {
          "indexed": false,
          "internalType": "address",
          "name": "owner",
          "type": "address"
        }
      ],
      "name": "NewIdentity",
      "type": "event"
    },
    {
      "anonymous": false,
      "inputs": [
        {
          "indexed": false,
          "internalType": "address",
          "name": "upalaId",
          "type": "address"
        },
        {
          "indexed": false,
          "internalType": "address",
          "name": "oldOwner",
          "type": "address"
        },
        {
          "indexed": false,
          "internalType": "address",
          "name": "newOwner",
          "type": "address"
        }
      ],
      "name": "NewIdentityOwner",
      "type": "event"
    },
    {
      "anonymous": false,
      "inputs": [
        {
          "indexed": false,
          "internalType": "address",
          "name": "poolAddress",
          "type": "address"
        },
        {
          "indexed": false,
          "internalType": "address",
          "name": "poolManager",
          "type": "address"
        },
        {
          "indexed": false,
          "internalType": "address",
          "name": "factory",
          "type": "address"
        }
      ],
      "name": "NewPool",
      "type": "event"
    },
    {
      "anonymous": false,
      "inputs": [
        {
          "indexed": false,
          "internalType": "address",
          "name": "poolFactory",
          "type": "address"
        },
        {
          "indexed": false,
          "internalType": "bool",
          "name": "isApproved",
          "type": "bool"
        }
      ],
      "name": "NewPoolFactoryStatus",
      "type": "event"
    },
    {
      "anonymous": false,
      "inputs": [
        {
          "indexed": false,
          "internalType": "address",
          "name": "newTreasury",
          "type": "address"
        }
      ],
      "name": "NewTreasury",
      "type": "event"
    },
    {
      "anonymous": false,
      "inputs": [
        {
          "indexed": true,
          "internalType": "address",
          "name": "previousOwner",
          "type": "address"
        },
        {
          "indexed": true,
          "internalType": "address",
          "name": "newOwner",
          "type": "address"
        }
      ],
      "name": "OwnershipTransferred",
      "type": "event"
    },
    {
      "inputs": [
        {
          "internalType": "address",
          "name": "delegate",
          "type": "address"
        }
      ],
      "name": "approveDelegate",
      "outputs": [],
      "stateMutability": "nonpayable",
      "type": "function"
    },
    {
      "inputs": [
        {
          "internalType": "address",
          "name": "upalaId",
          "type": "address"
        }
      ],
      "name": "approveDelegation",
      "outputs": [],
      "stateMutability": "nonpayable",
      "type": "function"
    },
    {
      "inputs": [
        {
          "internalType": "address",
          "name": "poolFactory",
          "type": "address"
        },
        {
          "internalType": "bool",
          "name": "isApproved",
          "type": "bool"
        }
      ],
      "name": "approvePoolFactory",
      "outputs": [],
      "stateMutability": "nonpayable",
      "type": "function"
    },
    {
      "inputs": [
        {
          "internalType": "address",
          "name": "",
          "type": "address"
        }
      ],
      "name": "approvedPoolFactories",
      "outputs": [
        {
          "internalType": "bool",
          "name": "",
          "type": "bool"
        }
      ],
      "stateMutability": "view",
      "type": "function"
    },
    {
      "inputs": [],
      "name": "attackWindow",
      "outputs": [
        {
          "internalType": "uint256",
          "name": "",
          "type": "uint256"
        }
      ],
      "stateMutability": "view",
      "type": "function"
    },
    {
      "inputs": [],
      "name": "executionWindow",
      "outputs": [
        {
          "internalType": "uint256",
          "name": "",
          "type": "uint256"
        }
      ],
      "stateMutability": "view",
      "type": "function"
    },
    {
      "inputs": [
        {
          "internalType": "address",
          "name": "identity",
          "type": "address"
        }
      ],
      "name": "explode",
      "outputs": [
        {
          "internalType": "bool",
          "name": "",
          "type": "bool"
        }
      ],
      "stateMutability": "nonpayable",
      "type": "function"
    },
    {
      "inputs": [],
      "name": "liquidationFeePercent",
      "outputs": [
        {
          "internalType": "uint8",
          "name": "",
          "type": "uint8"
        }
      ],
      "stateMutability": "view",
      "type": "function"
    },
    {
      "inputs": [],
      "name": "initialize",
      "outputs": [],
      "stateMutability": "nonpayable",
      "type": "function"
    },
    {
      "inputs": [
        {
          "internalType": "address",
          "name": "ownerOrDelegate",
          "type": "address"
        },
        {
          "internalType": "address",
          "name": "identity",
          "type": "address"
        }
      ],
      "name": "isOwnerOrDelegate",
      "outputs": [
        {
          "internalType": "bool",
          "name": "",
          "type": "bool"
        }
      ],
      "stateMutability": "view",
      "type": "function"
    },
    {
      "inputs": [],
      "name": "myId",
      "outputs": [
        {
          "internalType": "address",
          "name": "",
          "type": "address"
        }
      ],
      "stateMutability": "view",
      "type": "function"
    },
    {
      "inputs": [],
      "name": "myIdOwner",
      "outputs": [
        {
          "internalType": "address",
          "name": "owner",
          "type": "address"
        }
      ],
      "stateMutability": "view",
      "type": "function"
    },
    {
      "inputs": [
        {
          "internalType": "address",
          "name": "newIdentityOwner",
          "type": "address"
        }
      ],
      "name": "newIdentity",
      "outputs": [
        {
          "internalType": "address",
          "name": "",
          "type": "address"
        }
      ],
      "stateMutability": "nonpayable",
      "type": "function"
    },
    {
      "inputs": [],
      "name": "owner",
      "outputs": [
        {
          "internalType": "address",
          "name": "",
          "type": "address"
        }
      ],
      "stateMutability": "view",
      "type": "function"
    },
    {
      "inputs": [
        {
          "internalType": "address",
          "name": "",
          "type": "address"
        }
      ],
      "name": "poolParent",
      "outputs": [
        {
          "internalType": "address",
          "name": "",
          "type": "address"
        }
      ],
      "stateMutability": "view",
      "type": "function"
    },
    {
      "inputs": [],
      "name": "registerDApp",
      "outputs": [],
      "stateMutability": "nonpayable",
      "type": "function"
    },
    {
      "inputs": [
        {
          "internalType": "address",
          "name": "newPool",
          "type": "address"
        },
        {
          "internalType": "address",
          "name": "poolManager",
          "type": "address"
        }
      ],
      "name": "registerPool",
      "outputs": [
        {
          "internalType": "bool",
          "name": "",
          "type": "bool"
        }
      ],
      "stateMutability": "nonpayable",
      "type": "function"
    },
    {
      "inputs": [
        {
          "internalType": "address",
          "name": "",
          "type": "address"
        }
      ],
      "name": "registeredDapps",
      "outputs": [
        {
          "internalType": "bool",
          "name": "",
          "type": "bool"
        }
      ],
      "stateMutability": "view",
      "type": "function"
    },
    {
      "inputs": [
        {
          "internalType": "address",
          "name": "delegate",
          "type": "address"
        }
      ],
      "name": "removeDelegate",
      "outputs": [],
      "stateMutability": "nonpayable",
      "type": "function"
    },
    {
      "inputs": [],
      "name": "renounceOwnership",
      "outputs": [],
      "stateMutability": "nonpayable",
      "type": "function"
    },
    {
      "inputs": [
        {
          "internalType": "uint256",
          "name": "newWindow",
          "type": "uint256"
        }
      ],
      "name": "setAttackWindow",
      "outputs": [],
      "stateMutability": "nonpayable",
      "type": "function"
    },
    {
      "inputs": [
        {
          "internalType": "uint256",
          "name": "newWindow",
          "type": "uint256"
        }
      ],
      "name": "setExecutionWindow",
      "outputs": [],
      "stateMutability": "nonpayable",
      "type": "function"
    },
    {
      "inputs": [
        {
          "internalType": "uint8",
          "name": "newFee",
          "type": "uint8"
        }
      ],
      "name": "setExplosionFeePercent",
      "outputs": [],
      "stateMutability": "nonpayable",
      "type": "function"
    },
    {
      "inputs": [
        {
          "internalType": "address",
          "name": "newIdentityOwner",
          "type": "address"
        }
      ],
      "name": "setIdentityOwner",
      "outputs": [],
      "stateMutability": "nonpayable",
      "type": "function"
    },
    {
      "inputs": [
        {
          "internalType": "address",
          "name": "newTreasury",
          "type": "address"
        }
      ],
      "name": "setTreasury",
      "outputs": [],
      "stateMutability": "nonpayable",
      "type": "function"
    },
    {
      "inputs": [],
      "name": "stopDelegation",
      "outputs": [],
      "stateMutability": "nonpayable",
      "type": "function"
    },
    {
      "inputs": [
        {
          "internalType": "address",
          "name": "newOwner",
          "type": "address"
        }
      ],
      "name": "transferOwnership",
      "outputs": [],
      "stateMutability": "nonpayable",
      "type": "function"
    },
    {
      "inputs": [],
      "name": "treasury",
      "outputs": [
        {
          "internalType": "address",
          "name": "",
          "type": "address"
        }
      ],
      "stateMutability": "view",
      "type": "function"
    },
    {
      "inputs": [],
      "name": "unRegisterDApp",
      "outputs": [],
      "stateMutability": "nonpayable",
      "type": "function"
    }
  ],
  "bytecode": "0x608060405234801561001057600080fd5b5061395d806100206000396000f3fe608060405234801561001057600080fd5b50600436106101cf5760003560e01c80636460217d11610104578063b2fe76a7116100a2578063e600375b11610071578063e600375b146104ba578063f0f44260146104d8578063f18c03c4146104f4578063f2fde38b14610524576101cf565b8063b2fe76a71461046e578063be8113541461048a578063cbf8dfe9146104a6578063d43c020f146104b0576101cf565b80637286e5e5116100de5780637286e5e5146103f85780638129fc1c146104285780638da5cb5b1461043257806396c9c98514610450576101cf565b80636460217d146103c857806367e7646f146103d2578063715018a6146103ee576101cf565b80632b7c7f5d116101715780633f4978881161014b5780633f4978881461034057806354e0d6a8146103705780635e305d791461038e57806361d027b3146103aa576101cf565b80632b7c7f5d146102c457806330b93c49146102f4578063325b2dbc14610310576101cf565b806312e4ba1e116101ad57806312e4ba1e1461023e57806317c5993a1461025a5780632203959e146102785780632339e263146102a8576101cf565b806306df453e146101d45780630d24d568146101f0578063122545821461020e575b600080fd5b6101ee60048036038101906101e99190612c40565b610540565b005b6101f8610999565b60405161020591906137a5565b60405180910390f35b61022860048036038101906102239190612c69565b61099f565b6040516102359190613508565b60405180910390f35b61025860048036038101906102539190612c40565b610c5a565b005b610262610f74565b60405161026f91906137a5565b60405180910390f35b610292600480360381019061028d9190612c40565b610f7a565b60405161029f9190613508565b60405180910390f35b6102c260048036038101906102bd9190612ce1565b610f9a565b005b6102de60048036038101906102d99190612c40565b611095565b6040516102eb9190613508565b60405180910390f35b61030e60048036038101906103099190612ce1565b611269565b005b61032a60048036038101906103259190612c40565b611326565b6040516103379190613508565b60405180910390f35b61035a60048036038101906103559190612c40565b611346565b6040516103679190613464565b60405180910390f35b610378611379565b6040516103859190613464565b60405180910390f35b6103a860048036038101906103a39190612c40565b6113e0565b005b6103b2611568565b6040516103bf9190613464565b60405180910390f35b6103d061158e565b005b6103ec60048036038101906103e79190612c40565b6116ac565b005b6103f6611a70565b005b610412600480360381019061040d9190612c69565b611af8565b60405161041f9190613508565b60405180910390f35b610430611c50565b005b61043a611d57565b6040516104479190613464565b60405180910390f35b610458611d81565b6040516104659190613464565b60405180910390f35b61048860048036038101906104839190612d0a565b611e47565b005b6104a4600480360381019061049f9190612ca5565b611f18565b005b6104ae612028565b005b6104b861226e565b005b6104c2612302565b6040516104cf91906137c0565b60405180910390f35b6104f260048036038101906104ed9190612c40565b612315565b005b61050e60048036038101906105099190612c40565b61240c565b60405161051b9190613464565b60405180910390f35b61053e60048036038101906105399190612c40565b6126b9565b005b3373ffffffffffffffffffffffffffffffffffffffff1660686000606960003373ffffffffffffffffffffffffffffffffffffffff1673ffffffffffffffffffffffffffffffffffffffff16815260200190815260200160002060009054906101000a900473ffffffffffffffffffffffffffffffffffffffff1673ffffffffffffffffffffffffffffffffffffffff1673ffffffffffffffffffffffffffffffffffffffff16815260200190815260200160002060009054906101000a900473ffffffffffffffffffffffffffffffffffffffff1673ffffffffffffffffffffffffffffffffffffffff161461066c576040517f08c379a000000000000000000000000000000000000000000000000000000000815260040161066390613685565b60405180910390fd5b600073ffffffffffffffffffffffffffffffffffffffff168173ffffffffffffffffffffffffffffffffffffffff1614156106dc576040517f08c379a00000000000000000000000000000000000000000000000000000000081526004016106d390613665565b60405180910390fd5b3373ffffffffffffffffffffffffffffffffffffffff168173ffffffffffffffffffffffffffffffffffffffff16141561074b576040517f08c379a000000000000000000000000000000000000000000000000000000000815260040161074290613725565b60405180910390fd5b6000606960003373ffffffffffffffffffffffffffffffffffffffff1673ffffffffffffffffffffffffffffffffffffffff16815260200190815260200160002060009054906101000a900473ffffffffffffffffffffffffffffffffffffffff1690508073ffffffffffffffffffffffffffffffffffffffff16606a60008473ffffffffffffffffffffffffffffffffffffffff1673ffffffffffffffffffffffffffffffffffffffff16815260200190815260200160002060009054906101000a900473ffffffffffffffffffffffffffffffffffffffff1673ffffffffffffffffffffffffffffffffffffffff161461087c576040517f08c379a0000000000000000000000000000000000000000000000000000000008152600401610873906136c5565b60405180910390fd5b80606960008473ffffffffffffffffffffffffffffffffffffffff1673ffffffffffffffffffffffffffffffffffffffff16815260200190815260200160002060006101000a81548173ffffffffffffffffffffffffffffffffffffffff021916908373ffffffffffffffffffffffffffffffffffffffff160217905550606a60008373ffffffffffffffffffffffffffffffffffffffff1673ffffffffffffffffffffffffffffffffffffffff16815260200190815260200160002060006101000a81549073ffffffffffffffffffffffffffffffffffffffff02191690557f91a2062b5d99931cce4660685e1c239d69642eedbb9cef9679a393f064ec3626818360405161098d92919061347f565b60405180910390a15050565b60665481565b600060011515606c6000606d60003373ffffffffffffffffffffffffffffffffffffffff1673ffffffffffffffffffffffffffffffffffffffff16815260200190815260200160002060009054906101000a900473ffffffffffffffffffffffffffffffffffffffff1673ffffffffffffffffffffffffffffffffffffffff1673ffffffffffffffffffffffffffffffffffffffff16815260200190815260200160002060009054906101000a900460ff16151514610a93576040517f08c379a0000000000000000000000000000000000000000000000000000000008152600401610a8a90613645565b60405180910390fd5b606960008473ffffffffffffffffffffffffffffffffffffffff1673ffffffffffffffffffffffffffffffffffffffff16815260200190815260200160002060009054906101000a900473ffffffffffffffffffffffffffffffffffffffff1673ffffffffffffffffffffffffffffffffffffffff168273ffffffffffffffffffffffffffffffffffffffff1614610b60576040517f08c379a0000000000000000000000000000000000000000000000000000000008152600401610b5790613705565b60405180910390fd5b606b60009054906101000a900473ffffffffffffffffffffffffffffffffffffffff1673ffffffffffffffffffffffffffffffffffffffff16606860008473ffffffffffffffffffffffffffffffffffffffff1673ffffffffffffffffffffffffffffffffffffffff16815260200190815260200160002060009054906101000a900473ffffffffffffffffffffffffffffffffffffffff1673ffffffffffffffffffffffffffffffffffffffff161415610c50576040517f08c379a0000000000000000000000000000000000000000000000000000000008152600401610c47906135c5565b60405180910390fd5b6001905092915050565b3373ffffffffffffffffffffffffffffffffffffffff1660686000606960003373ffffffffffffffffffffffffffffffffffffffff1673ffffffffffffffffffffffffffffffffffffffff16815260200190815260200160002060009054906101000a900473ffffffffffffffffffffffffffffffffffffffff1673ffffffffffffffffffffffffffffffffffffffff1673ffffffffffffffffffffffffffffffffffffffff16815260200190815260200160002060009054906101000a900473ffffffffffffffffffffffffffffffffffffffff1673ffffffffffffffffffffffffffffffffffffffff1614610d86576040517f08c379a0000000000000000000000000000000000000000000000000000000008152600401610d7d90613685565b60405180910390fd5b6000606960003373ffffffffffffffffffffffffffffffffffffffff1673ffffffffffffffffffffffffffffffffffffffff16815260200190815260200160002060009054906101000a900473ffffffffffffffffffffffffffffffffffffffff1690508073ffffffffffffffffffffffffffffffffffffffff16606960008473ffffffffffffffffffffffffffffffffffffffff1673ffffffffffffffffffffffffffffffffffffffff16815260200190815260200160002060009054906101000a900473ffffffffffffffffffffffffffffffffffffffff1673ffffffffffffffffffffffffffffffffffffffff1614610eb7576040517f08c379a0000000000000000000000000000000000000000000000000000000008152600401610eae90613765565b60405180910390fd5b81606860008373ffffffffffffffffffffffffffffffffffffffff1673ffffffffffffffffffffffffffffffffffffffff16815260200190815260200160002060006101000a81548173ffffffffffffffffffffffffffffffffffffffff021916908373ffffffffffffffffffffffffffffffffffffffff1602179055507f93cf1a0294aa80a693d16517645d3faec50f4940bdeb124ebedc7e11e514c1f9813384604051610f68939291906134a8565b60405180910390a15050565b60675481565b606c6020528060005260406000206000915054906101000a900460ff1681565b610fa26127b1565b73ffffffffffffffffffffffffffffffffffffffff16610fc0611d57565b73ffffffffffffffffffffffffffffffffffffffff1614611016576040517f08c379a000000000000000000000000000000000000000000000000000000000815260040161100d906136e5565b60405180910390fd5b6110546040518060400160405280600f81526020017f73657441747461636b57696e646f7700000000000000000000000000000000008152506127b9565b806066819055507f2f8c31a5d1a0a6dec82499c709c5b976450a5159c24bc248123b173f9ac475018160405161108a91906137a5565b60405180910390a150565b600060011515606c6000606d60003373ffffffffffffffffffffffffffffffffffffffff1673ffffffffffffffffffffffffffffffffffffffff16815260200190815260200160002060009054906101000a900473ffffffffffffffffffffffffffffffffffffffff1673ffffffffffffffffffffffffffffffffffffffff1673ffffffffffffffffffffffffffffffffffffffff16815260200190815260200160002060009054906101000a900460ff16151514611189576040517f08c379a000000000000000000000000000000000000000000000000000000000815260040161118090613645565b60405180910390fd5b606b60009054906101000a900473ffffffffffffffffffffffffffffffffffffffff16606860008473ffffffffffffffffffffffffffffffffffffffff1673ffffffffffffffffffffffffffffffffffffffff16815260200190815260200160002060006101000a81548173ffffffffffffffffffffffffffffffffffffffff021916908373ffffffffffffffffffffffffffffffffffffffff1602179055507f86b6b00c2c814fed47d22995306f14379ab2f96b9a556428f89ef2f1ab7b46c7826040516112589190613464565b60405180910390a160019050919050565b6112716127b1565b73ffffffffffffffffffffffffffffffffffffffff1661128f611d57565b73ffffffffffffffffffffffffffffffffffffffff16146112e5576040517f08c379a00000000000000000000000000000000000000000000000000000000081526004016112dc906136e5565b60405180910390fd5b806067819055507f8576a6dd0cb347b510a74d083f8973816ce21575177d7a0da49ab0230be9ed288160405161131b91906137a5565b60405180910390a150565b606e6020528060005260406000206000915054906101000a900460ff1681565b606d6020528060005260406000206000915054906101000a900473ffffffffffffffffffffffffffffffffffffffff1681565b6000606960003373ffffffffffffffffffffffffffffffffffffffff1673ffffffffffffffffffffffffffffffffffffffff16815260200190815260200160002060009054906101000a900473ffffffffffffffffffffffffffffffffffffffff16905090565b600073ffffffffffffffffffffffffffffffffffffffff16606960003373ffffffffffffffffffffffffffffffffffffffff1673ffffffffffffffffffffffffffffffffffffffff16815260200190815260200160002060009054906101000a900473ffffffffffffffffffffffffffffffffffffffff1673ffffffffffffffffffffffffffffffffffffffff16146114ae576040517f08c379a00000000000000000000000000000000000000000000000000000000081526004016114a590613785565b60405180910390fd5b80606a60003373ffffffffffffffffffffffffffffffffffffffff1673ffffffffffffffffffffffffffffffffffffffff16815260200190815260200160002060006101000a81548173ffffffffffffffffffffffffffffffffffffffff021916908373ffffffffffffffffffffffffffffffffffffffff1602179055507f98a0f11f4b9ad90e804157faf51a8a25922cd547e5e2fa76ae0a8e4c7a9ce39c813360405161155d92919061347f565b60405180910390a150565b606560019054906101000a900473ffffffffffffffffffffffffffffffffffffffff1681565b60011515606e60003373ffffffffffffffffffffffffffffffffffffffff1673ffffffffffffffffffffffffffffffffffffffff16815260200190815260200160002060009054906101000a900460ff16151514611621576040517f08c379a000000000000000000000000000000000000000000000000000000000815260040161161890613625565b60405180910390fd5b606e60003373ffffffffffffffffffffffffffffffffffffffff1673ffffffffffffffffffffffffffffffffffffffff16815260200190815260200160002060006101000a81549060ff02191690557fe650729918d1feefffb934d3577cd55650d7b4ca398097259a8daeccf2db70283360006040516116a29291906134df565b60405180910390a1565b3373ffffffffffffffffffffffffffffffffffffffff1660686000606960003373ffffffffffffffffffffffffffffffffffffffff1673ffffffffffffffffffffffffffffffffffffffff16815260200190815260200160002060009054906101000a900473ffffffffffffffffffffffffffffffffffffffff1673ffffffffffffffffffffffffffffffffffffffff1673ffffffffffffffffffffffffffffffffffffffff16815260200190815260200160002060009054906101000a900473ffffffffffffffffffffffffffffffffffffffff1673ffffffffffffffffffffffffffffffffffffffff16146117d8576040517f08c379a00000000000000000000000000000000000000000000000000000000081526004016117cf90613685565b60405180910390fd5b3373ffffffffffffffffffffffffffffffffffffffff168173ffffffffffffffffffffffffffffffffffffffff161415611847576040517f08c379a000000000000000000000000000000000000000000000000000000000815260040161183e90613585565b60405180910390fd5b606960008273ffffffffffffffffffffffffffffffffffffffff1673ffffffffffffffffffffffffffffffffffffffff16815260200190815260200160002060009054906101000a900473ffffffffffffffffffffffffffffffffffffffff1673ffffffffffffffffffffffffffffffffffffffff16606960003373ffffffffffffffffffffffffffffffffffffffff1673ffffffffffffffffffffffffffffffffffffffff16815260200190815260200160002060009054906101000a900473ffffffffffffffffffffffffffffffffffffffff1673ffffffffffffffffffffffffffffffffffffffff1614611973576040517f08c379a000000000000000000000000000000000000000000000000000000000815260040161196a90613745565b60405180910390fd5b606960008273ffffffffffffffffffffffffffffffffffffffff1673ffffffffffffffffffffffffffffffffffffffff16815260200190815260200160002060006101000a81549073ffffffffffffffffffffffffffffffffffffffff02191690557f1e2a0b8a9fec5daa10c8ee616cd7c1d1570ae6c946e56405ce4719e415409579606960003373ffffffffffffffffffffffffffffffffffffffff1673ffffffffffffffffffffffffffffffffffffffff16815260200190815260200160002060009054906101000a900473ffffffffffffffffffffffffffffffffffffffff1682604051611a6592919061347f565b60405180910390a150565b611a786127b1565b73ffffffffffffffffffffffffffffffffffffffff16611a96611d57565b73ffffffffffffffffffffffffffffffffffffffff1614611aec576040517f08c379a0000000000000000000000000000000000000000000000000000000008152600401611ae3906136e5565b60405180910390fd5b611af66000612852565b565b600060011515606c60003373ffffffffffffffffffffffffffffffffffffffff1673ffffffffffffffffffffffffffffffffffffffff16815260200190815260200160002060009054906101000a900460ff16151514611b8d576040517f08c379a0000000000000000000000000000000000000000000000000000000008152600401611b8490613565565b60405180910390fd5b33606d60008573ffffffffffffffffffffffffffffffffffffffff1673ffffffffffffffffffffffffffffffffffffffff16815260200190815260200160002060006101000a81548173ffffffffffffffffffffffffffffffffffffffff021916908373ffffffffffffffffffffffffffffffffffffffff1602179055507fd02da1bec30f7f750aa0a131745dfb9ce96767c45a192dc26409f5d690e0b967838333604051611c3e939291906134a8565b60405180910390a16001905092915050565b611c58612918565b611c966040518060400160405280600681526020017f73646673646600000000000000000000000000000000000000000000000000008152506127b9565b6003606560006101000a81548160ff021916908360ff160217905550611cba611d57565b606560016101000a81548173ffffffffffffffffffffffffffffffffffffffff021916908373ffffffffffffffffffffffffffffffffffffffff160217905550610708606681905550610e10606781905550676578706c6f646564606b60006101000a81548173ffffffffffffffffffffffffffffffffffffffff021916908373ffffffffffffffffffffffffffffffffffffffff160217905550565b6000603360009054906101000a900473ffffffffffffffffffffffffffffffffffffffff16905090565b600060686000606960003373ffffffffffffffffffffffffffffffffffffffff1673ffffffffffffffffffffffffffffffffffffffff16815260200190815260200160002060009054906101000a900473ffffffffffffffffffffffffffffffffffffffff1673ffffffffffffffffffffffffffffffffffffffff1673ffffffffffffffffffffffffffffffffffffffff16815260200190815260200160002060009054906101000a900473ffffffffffffffffffffffffffffffffffffffff16905090565b611e4f6127b1565b73ffffffffffffffffffffffffffffffffffffffff16611e6d611d57565b73ffffffffffffffffffffffffffffffffffffffff1614611ec3576040517f08c379a0000000000000000000000000000000000000000000000000000000008152600401611eba906136e5565b60405180910390fd5b80606560006101000a81548160ff021916908360ff1602179055507f22fd2bd5dbd415f0702c9c3aea01c7ba1fc13b92d166b1a3533cf530c82bff5e81604051611f0d91906137c0565b60405180910390a150565b611f206127b1565b73ffffffffffffffffffffffffffffffffffffffff16611f3e611d57565b73ffffffffffffffffffffffffffffffffffffffff1614611f94576040517f08c379a0000000000000000000000000000000000000000000000000000000008152600401611f8b906136e5565b60405180910390fd5b80606c60008473ffffffffffffffffffffffffffffffffffffffff1673ffffffffffffffffffffffffffffffffffffffff16815260200190815260200160002060006101000a81548160ff0219169083151502179055507fec48c4a53bc66a4375656467c692f9cda3ab5fc839e0e99add20936b745e6055828260405161201c9291906134df565b60405180910390a15050565b6000606960003373ffffffffffffffffffffffffffffffffffffffff1673ffffffffffffffffffffffffffffffffffffffff16815260200190815260200160002060009054906101000a900473ffffffffffffffffffffffffffffffffffffffff169050600073ffffffffffffffffffffffffffffffffffffffff168173ffffffffffffffffffffffffffffffffffffffff1614156120fc576040517f08c379a00000000000000000000000000000000000000000000000000000000081526004016120f3906135e5565b60405180910390fd5b6000606860008373ffffffffffffffffffffffffffffffffffffffff1673ffffffffffffffffffffffffffffffffffffffff16815260200190815260200160002060009054906101000a900473ffffffffffffffffffffffffffffffffffffffff1690503373ffffffffffffffffffffffffffffffffffffffff168173ffffffffffffffffffffffffffffffffffffffff1614156121cf576040517f08c379a00000000000000000000000000000000000000000000000000000000081526004016121c6906135a5565b60405180910390fd5b606960003373ffffffffffffffffffffffffffffffffffffffff1673ffffffffffffffffffffffffffffffffffffffff16815260200190815260200160002060006101000a81549073ffffffffffffffffffffffffffffffffffffffff02191690557f1e2a0b8a9fec5daa10c8ee616cd7c1d1570ae6c946e56405ce4719e415409579823360405161226292919061347f565b60405180910390a15050565b6001606e60003373ffffffffffffffffffffffffffffffffffffffff1673ffffffffffffffffffffffffffffffffffffffff16815260200190815260200160002060006101000a81548160ff0219169083151502179055507fe650729918d1feefffb934d3577cd55650d7b4ca398097259a8daeccf2db70283360016040516122f89291906134df565b60405180910390a1565b606560009054906101000a900460ff1681565b61231d6127b1565b73ffffffffffffffffffffffffffffffffffffffff1661233b611d57565b73ffffffffffffffffffffffffffffffffffffffff1614612391576040517f08c379a0000000000000000000000000000000000000000000000000000000008152600401612388906136e5565b60405180910390fd5b80606560016101000a81548173ffffffffffffffffffffffffffffffffffffffff021916908373ffffffffffffffffffffffffffffffffffffffff1602179055507fafa147634b29e2c7bd53ce194256b9f41cfb9ba3036f2b822fdd1d965beea086816040516124019190613464565b60405180910390a150565b60008073ffffffffffffffffffffffffffffffffffffffff168273ffffffffffffffffffffffffffffffffffffffff16141561247d576040517f08c379a000000000000000000000000000000000000000000000000000000000815260040161247490613665565b60405180910390fd5b600073ffffffffffffffffffffffffffffffffffffffff16606960008473ffffffffffffffffffffffffffffffffffffffff1673ffffffffffffffffffffffffffffffffffffffff16815260200190815260200160002060009054906101000a900473ffffffffffffffffffffffffffffffffffffffff1673ffffffffffffffffffffffffffffffffffffffff161461254b576040517f08c379a000000000000000000000000000000000000000000000000000000000815260040161254290613545565b60405180910390fd5b60008242604051602001612560929190613438565b6040516020818303038152906040528051906020012060001c905082606860008373ffffffffffffffffffffffffffffffffffffffff1673ffffffffffffffffffffffffffffffffffffffff16815260200190815260200160002060006101000a81548173ffffffffffffffffffffffffffffffffffffffff021916908373ffffffffffffffffffffffffffffffffffffffff16021790555080606960008573ffffffffffffffffffffffffffffffffffffffff1673ffffffffffffffffffffffffffffffffffffffff16815260200190815260200160002060006101000a81548173ffffffffffffffffffffffffffffffffffffffff021916908373ffffffffffffffffffffffffffffffffffffffff1602179055507f4bbb10c11c6c8c35689f097fa303b69ba45da8472d34886663ebbf3b1a42ce2881846040516126a892919061347f565b60405180910390a180915050919050565b6126c16127b1565b73ffffffffffffffffffffffffffffffffffffffff166126df611d57565b73ffffffffffffffffffffffffffffffffffffffff1614612735576040517f08c379a000000000000000000000000000000000000000000000000000000000815260040161272c906136e5565b60405180910390fd5b600073ffffffffffffffffffffffffffffffffffffffff168173ffffffffffffffffffffffffffffffffffffffff1614156127a5576040517f08c379a000000000000000000000000000000000000000000000000000000000815260040161279c90613605565b60405180910390fd5b6127ae81612852565b50565b600033905090565b61284f816040516024016127cd9190613523565b6040516020818303038152906040527f41304fac000000000000000000000000000000000000000000000000000000007bffffffffffffffffffffffffffffffffffffffffffffffffffffffff19166020820180517bffffffffffffffffffffffffffffffffffffffffffffffffffffffff8381831617835250505050612a01565b50565b6000603360009054906101000a900473ffffffffffffffffffffffffffffffffffffffff16905081603360006101000a81548173ffffffffffffffffffffffffffffffffffffffff021916908373ffffffffffffffffffffffffffffffffffffffff1602179055508173ffffffffffffffffffffffffffffffffffffffff168173ffffffffffffffffffffffffffffffffffffffff167f8be0079c531659141344cd1fd0a4f28419497f9722a3daafe3b4186f6b6457e060405160405180910390a35050565b600060019054906101000a900460ff168061293e575060008054906101000a900460ff16155b61297d576040517f08c379a0000000000000000000000000000000000000000000000000000000008152600401612974906136a5565b60405180910390fd5b60008060019054906101000a900460ff1615905080156129cd576001600060016101000a81548160ff02191690831515021790555060016000806101000a81548160ff0219169083151502179055505b6129d5612a2a565b6129dd612b03565b80156129fe5760008060016101000a81548160ff0219169083151502179055505b50565b60008151905060006a636f6e736f6c652e6c6f679050602083016000808483855afa5050505050565b600060019054906101000a900460ff1680612a50575060008054906101000a900460ff16155b612a8f576040517f08c379a0000000000000000000000000000000000000000000000000000000008152600401612a86906136a5565b60405180910390fd5b60008060019054906101000a900460ff161590508015612adf576001600060016101000a81548160ff02191690831515021790555060016000806101000a81548160ff0219169083151502179055505b8015612b005760008060016101000a81548160ff0219169083151502179055505b50565b600060019054906101000a900460ff1680612b29575060008054906101000a900460ff16155b612b68576040517f08c379a0000000000000000000000000000000000000000000000000000000008152600401612b5f906136a5565b60405180910390fd5b60008060019054906101000a900460ff161590508015612bb8576001600060016101000a81548160ff02191690831515021790555060016000806101000a81548160ff0219169083151502179055505b612bc8612bc36127b1565b612852565b8015612be95760008060016101000a81548160ff0219169083151502179055505b50565b600081359050612bfb816138cb565b92915050565b600081359050612c10816138e2565b92915050565b600081359050612c25816138f9565b92915050565b600081359050612c3a81613910565b92915050565b600060208284031215612c5257600080fd5b6000612c6084828501612bec565b91505092915050565b60008060408385031215612c7c57600080fd5b6000612c8a85828601612bec565b9250506020612c9b85828601612bec565b9150509250929050565b60008060408385031215612cb857600080fd5b6000612cc685828601612bec565b9250506020612cd785828601612c01565b9150509250929050565b600060208284031215612cf357600080fd5b6000612d0184828501612c16565b91505092915050565b600060208284031215612d1c57600080fd5b6000612d2a84828501612c2b565b91505092915050565b612d3c816137f7565b82525050565b612d53612d4e826137f7565b61387f565b82525050565b612d6281613809565b82525050565b6000612d73826137db565b612d7d81856137e6565b9350612d8d81856020860161384c565b612d96816138ad565b840191505092915050565b6000612dae6027836137e6565b91507f4164647265737320697320616c726561647920616e206f776e6572206f72206460008301527f656c6567617465000000000000000000000000000000000000000000000000006020830152604082019050919050565b6000612e14601c836137e6565b91507f506f6f6c20666163746f7279206973206e6f7420617070726f766564000000006000830152602082019050919050565b6000612e546015836137e6565b91507f43616e6e6f742072656d6f7665206f6e6573656c6600000000000000000000006000830152602082019050919050565b6000612e94601c836137e6565b91507f43616e6e6f742072656d6f7665206964656e74697479206f776e6572000000006000830152602082019050919050565b6000612ed46021836137e6565b91507f5570616c613a2054686520696420697320616c7265616479206578706c6f646560008301527f64000000000000000000000000000000000000000000000000000000000000006020830152604082019050919050565b6000612f3a6012836137e6565b91507f4d75737420626520612064656c656761746500000000000000000000000000006000830152602082019050919050565b6000612f7a6026836137e6565b91507f4f776e61626c653a206e6577206f776e657220697320746865207a65726f206160008301527f64647265737300000000000000000000000000000000000000000000000000006020830152604082019050919050565b6000612fe06016836137e6565b91507f44417070206973206e6f742072656769737465726564000000000000000000006000830152602082019050919050565b60006130206022836137e6565b91507f506172656e7420706f6f6c20666163746f727920697320646973617070726f7660008301527f65640000000000000000000000000000000000000000000000000000000000006020830152604082019050919050565b6000613086601a836137e6565b91507f43616e6e6f742075736520616e20656d707479206164646573730000000000006000830152602082019050919050565b60006130c66030836137e6565b91507f4f6e6c79206964656e7469747920686f6c6465722063616e20616464206f722060008301527f72656d6f76652064656c656761746573000000000000000000000000000000006020830152604082019050919050565b600061312c602e836137e6565b91507f496e697469616c697a61626c653a20636f6e747261637420697320616c72656160008301527f647920696e697469616c697a65640000000000000000000000000000000000006020830152604082019050919050565b60006131926027836137e6565b91507f44656c656761746565206d75737420636f6e6669726d2064656c65676174696f60008301527f6e206669727374000000000000000000000000000000000000000000000000006020830152604082019050919050565b60006131f86020836137e6565b91507f4f776e61626c653a2063616c6c6572206973206e6f7420746865206f776e65726000830152602082019050919050565b6000613238603b836137e6565b91507f5570616c613a204e6f20737563682069642c206e6f7420616e206f776e65722060008301527f6f72206e6f7420612064656c6567617465206f662074686520696400000000006020830152604082019050919050565b600061329e6022836137e6565b91507f43616e6e6f7420617070726f7665206f6e6573656c662061732064656c65676160008301527f74650000000000000000000000000000000000000000000000000000000000006020830152604082019050919050565b6000613304602e836137e6565b91507f5570616c614964206d7573742062652073616d6520666f722064656c6567617460008301527f6520616e64206964206f776e65720000000000000000000000000000000000006020830152604082019050919050565b600061336a602d836137e6565b91507f41646472657373206973206e6f7420612064656c656761746520666f7220637560008301527f7272656e74205570616c614964000000000000000000000000000000000000006020830152604082019050919050565b60006133d06012836137e6565b91507f416c726561647920612064656c656761746500000000000000000000000000006000830152602082019050919050565b61340c81613835565b82525050565b61342361341e82613835565b6138a3565b82525050565b6134328161383f565b82525050565b60006134448285612d42565b6014820191506134548284613412565b6020820191508190509392505050565b60006020820190506134796000830184612d33565b92915050565b60006040820190506134946000830185612d33565b6134a16020830184612d33565b9392505050565b60006060820190506134bd6000830186612d33565b6134ca6020830185612d33565b6134d76040830184612d33565b949350505050565b60006040820190506134f46000830185612d33565b6135016020830184612d59565b9392505050565b600060208201905061351d6000830184612d59565b92915050565b6000602082019050818103600083015261353d8184612d68565b905092915050565b6000602082019050818103600083015261355e81612da1565b9050919050565b6000602082019050818103600083015261357e81612e07565b9050919050565b6000602082019050818103600083015261359e81612e47565b9050919050565b600060208201905081810360008301526135be81612e87565b9050919050565b600060208201905081810360008301526135de81612ec7565b9050919050565b600060208201905081810360008301526135fe81612f2d565b9050919050565b6000602082019050818103600083015261361e81612f6d565b9050919050565b6000602082019050818103600083015261363e81612fd3565b9050919050565b6000602082019050818103600083015261365e81613013565b9050919050565b6000602082019050818103600083015261367e81613079565b9050919050565b6000602082019050818103600083015261369e816130b9565b9050919050565b600060208201905081810360008301526136be8161311f565b9050919050565b600060208201905081810360008301526136de81613185565b9050919050565b600060208201905081810360008301526136fe816131eb565b9050919050565b6000602082019050818103600083015261371e8161322b565b9050919050565b6000602082019050818103600083015261373e81613291565b9050919050565b6000602082019050818103600083015261375e816132f7565b9050919050565b6000602082019050818103600083015261377e8161335d565b9050919050565b6000602082019050818103600083015261379e816133c3565b9050919050565b60006020820190506137ba6000830184613403565b92915050565b60006020820190506137d56000830184613429565b92915050565b600081519050919050565b600082825260208201905092915050565b600061380282613815565b9050919050565b60008115159050919050565b600073ffffffffffffffffffffffffffffffffffffffff82169050919050565b6000819050919050565b600060ff82169050919050565b60005b8381101561386a57808201518184015260208101905061384f565b83811115613879576000848401525b50505050565b600061388a82613891565b9050919050565b600061389c826138be565b9050919050565b6000819050919050565b6000601f19601f8301169050919050565b60008160601b9050919050565b6138d4816137f7565b81146138df57600080fd5b50565b6138eb81613809565b81146138f657600080fd5b50565b61390281613835565b811461390d57600080fd5b50565b6139198161383f565b811461392457600080fd5b5056fea2646970667358221220c16f6d6a6c91b6342460f069e4a56290a772bd917991daa1056512384fb0ab8064736f6c63430008000033",
  "linkReferences": {},
  "deployedLinkReferences": {}
}