{
  "_format": "hh-sol-artifact-1",
  "contractName": "Upala",
  "sourceName": "contracts/protocol/upala.sol",
  "abi": [
    {
      "anonymous": false,
      "inputs": [
        {
          "indexed": false,
          "internalType": "address",
          "name": "upalaId",
          "type": "address"
        },
        {
          "indexed": false,
          "internalType": "address",
          "name": "delegate",
          "type": "address"
        }
      ],
      "name": "DelegateDeleted",
      "type": "event"
    },
    {
      "anonymous": false,
      "inputs": [
        {
          "indexed": false,
          "internalType": "address",
          "name": "upalaId",
          "type": "address"
        }
      ],
      "name": "Exploded",
      "type": "event"
    },
    {
      "anonymous": false,
      "inputs": [
        {
          "indexed": false,
          "internalType": "uint256",
          "name": "newWindow",
          "type": "uint256"
        }
      ],
      "name": "NewAttackWindow",
      "type": "event"
    },
    {
      "anonymous": false,
      "inputs": [
        {
          "indexed": false,
          "internalType": "address",
          "name": "dappAddress",
          "type": "address"
        },
        {
          "indexed": false,
          "internalType": "bool",
          "name": "isRegistered",
          "type": "bool"
        }
      ],
      "name": "NewDAppStatus",
      "type": "event"
    },
    {
      "anonymous": false,
      "inputs": [
        {
          "indexed": false,
          "internalType": "address",
          "name": "upalaId",
          "type": "address"
        },
        {
          "indexed": false,
          "internalType": "address",
          "name": "delegate",
          "type": "address"
        },
        {
          "indexed": false,
          "internalType": "bool",
          "name": "isApproved",
          "type": "bool"
        }
      ],
      "name": "NewDelegate",
      "type": "event"
    },
    {
      "anonymous": false,
      "inputs": [
        {
          "indexed": false,
          "internalType": "uint256",
          "name": "newWindow",
          "type": "uint256"
        }
      ],
      "name": "NewExecutionWindow",
      "type": "event"
    },
    {
      "anonymous": false,
      "inputs": [
        {
          "indexed": false,
          "internalType": "uint8",
          "name": "newFee",
          "type": "uint8"
        }
      ],
      "name": "NewExplosionFeePercent",
      "type": "event"
    },
    {
      "anonymous": false,
      "inputs": [
        {
          "indexed": false,
          "internalType": "address",
          "name": "upalaId",
          "type": "address"
        },
        {
          "indexed": false,
          "internalType": "address",
          "name": "owner",
          "type": "address"
        }
      ],
      "name": "NewIdentity",
      "type": "event"
    },
    {
      "anonymous": false,
      "inputs": [
        {
          "indexed": false,
          "internalType": "address",
          "name": "upalaId",
          "type": "address"
        },
        {
          "indexed": false,
          "internalType": "address",
          "name": "owner",
          "type": "address"
        }
      ],
      "name": "NewIdentityOwner",
      "type": "event"
    },
    {
      "anonymous": false,
      "inputs": [
        {
          "indexed": false,
          "internalType": "address",
          "name": "poolAddress",
          "type": "address"
        },
        {
          "indexed": false,
          "internalType": "address",
          "name": "poolManager",
          "type": "address"
        },
        {
          "indexed": false,
          "internalType": "address",
          "name": "factory",
          "type": "address"
        }
      ],
      "name": "NewPool",
      "type": "event"
    },
    {
      "anonymous": false,
      "inputs": [
        {
          "indexed": false,
          "internalType": "address",
          "name": "poolFactory",
          "type": "address"
        },
        {
          "indexed": false,
          "internalType": "bool",
          "name": "isApproved",
          "type": "bool"
        }
      ],
      "name": "NewPoolFactoryStatus",
      "type": "event"
    },
    {
      "anonymous": false,
      "inputs": [
        {
          "indexed": false,
          "internalType": "address",
          "name": "newTreasury",
          "type": "address"
        }
      ],
      "name": "NewTreasury",
      "type": "event"
    },
    {
      "anonymous": false,
      "inputs": [
        {
          "indexed": true,
          "internalType": "address",
          "name": "previousOwner",
          "type": "address"
        },
        {
          "indexed": true,
          "internalType": "address",
          "name": "newOwner",
          "type": "address"
        }
      ],
      "name": "OwnershipTransferred",
      "type": "event"
    },
    {
      "inputs": [
        {
          "internalType": "address",
          "name": "delegate",
          "type": "address"
        }
      ],
      "name": "approveDelegate",
      "outputs": [],
      "stateMutability": "nonpayable",
      "type": "function"
    },
    {
      "inputs": [
        {
          "internalType": "address",
          "name": "upalaId",
          "type": "address"
        }
      ],
      "name": "approveDelegation",
      "outputs": [],
      "stateMutability": "nonpayable",
      "type": "function"
    },
    {
      "inputs": [
        {
          "internalType": "address",
          "name": "poolFactory",
          "type": "address"
        },
        {
          "internalType": "bool",
          "name": "isApproved",
          "type": "bool"
        }
      ],
      "name": "approvePoolFactory",
      "outputs": [],
      "stateMutability": "nonpayable",
      "type": "function"
    },
    {
      "inputs": [
        {
          "internalType": "address",
          "name": "",
          "type": "address"
        }
      ],
      "name": "approvedPoolFactories",
      "outputs": [
        {
          "internalType": "bool",
          "name": "",
          "type": "bool"
        }
      ],
      "stateMutability": "view",
      "type": "function"
    },
    {
      "inputs": [],
      "name": "attackWindow",
      "outputs": [
        {
          "internalType": "uint256",
          "name": "",
          "type": "uint256"
        }
      ],
      "stateMutability": "view",
      "type": "function"
    },
    {
      "inputs": [],
      "name": "executionWindow",
      "outputs": [
        {
          "internalType": "uint256",
          "name": "",
          "type": "uint256"
        }
      ],
      "stateMutability": "view",
      "type": "function"
    },
    {
      "inputs": [
        {
          "internalType": "address",
          "name": "identity",
          "type": "address"
        }
      ],
      "name": "explode",
      "outputs": [
        {
          "internalType": "bool",
          "name": "",
          "type": "bool"
        }
      ],
      "stateMutability": "nonpayable",
      "type": "function"
    },
    {
      "inputs": [],
      "name": "explosionFeePercent",
      "outputs": [
        {
          "internalType": "uint8",
          "name": "",
          "type": "uint8"
        }
      ],
      "stateMutability": "view",
      "type": "function"
    },
    {
      "inputs": [],
      "name": "initialize",
      "outputs": [],
      "stateMutability": "nonpayable",
      "type": "function"
    },
    {
      "inputs": [
        {
          "internalType": "address",
          "name": "ownerOrDelegate",
          "type": "address"
        },
        {
          "internalType": "address",
          "name": "identity",
          "type": "address"
        }
      ],
      "name": "isOwnerOrDelegate",
      "outputs": [
        {
          "internalType": "bool",
          "name": "",
          "type": "bool"
        }
      ],
      "stateMutability": "view",
      "type": "function"
    },
    {
      "inputs": [],
      "name": "myId",
      "outputs": [
        {
          "internalType": "address",
          "name": "",
          "type": "address"
        }
      ],
      "stateMutability": "view",
      "type": "function"
    },
    {
      "inputs": [],
      "name": "myIdOwner",
      "outputs": [
        {
          "internalType": "address",
          "name": "owner",
          "type": "address"
        }
      ],
      "stateMutability": "view",
      "type": "function"
    },
    {
      "inputs": [
        {
          "internalType": "address",
          "name": "newIdentityOwner",
          "type": "address"
        }
      ],
      "name": "newIdentity",
      "outputs": [
        {
          "internalType": "address",
          "name": "",
          "type": "address"
        }
      ],
      "stateMutability": "nonpayable",
      "type": "function"
    },
    {
      "inputs": [],
      "name": "owner",
      "outputs": [
        {
          "internalType": "address",
          "name": "",
          "type": "address"
        }
      ],
      "stateMutability": "view",
      "type": "function"
    },
    {
      "inputs": [
        {
          "internalType": "address",
          "name": "",
          "type": "address"
        }
      ],
      "name": "poolParent",
      "outputs": [
        {
          "internalType": "address",
          "name": "",
          "type": "address"
        }
      ],
      "stateMutability": "view",
      "type": "function"
    },
    {
      "inputs": [],
      "name": "registerDApp",
      "outputs": [],
      "stateMutability": "nonpayable",
      "type": "function"
    },
    {
      "inputs": [
        {
          "internalType": "address",
          "name": "newPool",
          "type": "address"
        },
        {
          "internalType": "address",
          "name": "poolManager",
          "type": "address"
        }
      ],
      "name": "registerPool",
      "outputs": [
        {
          "internalType": "bool",
          "name": "",
          "type": "bool"
        }
      ],
      "stateMutability": "nonpayable",
      "type": "function"
    },
    {
      "inputs": [
        {
          "internalType": "address",
          "name": "",
          "type": "address"
        }
      ],
      "name": "registeredDapps",
      "outputs": [
        {
          "internalType": "bool",
          "name": "",
          "type": "bool"
        }
      ],
      "stateMutability": "view",
      "type": "function"
    },
    {
      "inputs": [
        {
          "internalType": "address",
          "name": "delegate",
          "type": "address"
        }
      ],
      "name": "removeDelegate",
      "outputs": [],
      "stateMutability": "nonpayable",
      "type": "function"
    },
    {
      "inputs": [],
      "name": "renounceOwnership",
      "outputs": [],
      "stateMutability": "nonpayable",
      "type": "function"
    },
    {
      "inputs": [
        {
          "internalType": "uint256",
          "name": "newWindow",
          "type": "uint256"
        }
      ],
      "name": "setAttackWindow",
      "outputs": [],
      "stateMutability": "nonpayable",
      "type": "function"
    },
    {
      "inputs": [
        {
          "internalType": "uint256",
          "name": "newWindow",
          "type": "uint256"
        }
      ],
      "name": "setExecutionWindow",
      "outputs": [],
      "stateMutability": "nonpayable",
      "type": "function"
    },
    {
      "inputs": [
        {
          "internalType": "uint8",
          "name": "newFee",
          "type": "uint8"
        }
      ],
      "name": "setExplosionFeePercent",
      "outputs": [],
      "stateMutability": "nonpayable",
      "type": "function"
    },
    {
      "inputs": [
        {
          "internalType": "address",
          "name": "newIdentityOwner",
          "type": "address"
        }
      ],
      "name": "setIdentityOwner",
      "outputs": [],
      "stateMutability": "nonpayable",
      "type": "function"
    },
    {
      "inputs": [
        {
          "internalType": "address",
          "name": "newTreasury",
          "type": "address"
        }
      ],
      "name": "setTreasury",
      "outputs": [],
      "stateMutability": "nonpayable",
      "type": "function"
    },
    {
      "inputs": [],
      "name": "stopDelegation",
      "outputs": [],
      "stateMutability": "nonpayable",
      "type": "function"
    },
    {
      "inputs": [
        {
          "internalType": "address",
          "name": "newOwner",
          "type": "address"
        }
      ],
      "name": "transferOwnership",
      "outputs": [],
      "stateMutability": "nonpayable",
      "type": "function"
    },
    {
      "inputs": [],
      "name": "treasury",
      "outputs": [
        {
          "internalType": "address",
          "name": "",
          "type": "address"
        }
      ],
      "stateMutability": "view",
      "type": "function"
    },
    {
      "inputs": [],
      "name": "unRegisterDApp",
      "outputs": [],
      "stateMutability": "nonpayable",
      "type": "function"
    }
  ],
  "bytecode": "0x608060405234801561001057600080fd5b50613998806100206000396000f3fe608060405234801561001057600080fd5b50600436106101cf5760003560e01c80636460217d11610104578063b2fe76a7116100a2578063e600375b11610071578063e600375b146104ba578063f0f44260146104d8578063f18c03c4146104f4578063f2fde38b14610524576101cf565b8063b2fe76a71461046e578063be8113541461048a578063cbf8dfe9146104a6578063d43c020f146104b0576101cf565b80637286e5e5116100de5780637286e5e5146103f85780638129fc1c146104285780638da5cb5b1461043257806396c9c98514610450576101cf565b80636460217d146103c857806367e7646f146103d2578063715018a6146103ee576101cf565b80632b7c7f5d116101715780633f4978881161014b5780633f4978881461034057806354e0d6a8146103705780635e305d791461038e57806361d027b3146103aa576101cf565b80632b7c7f5d146102c457806330b93c49146102f4578063325b2dbc14610310576101cf565b806312e4ba1e116101ad57806312e4ba1e1461023e57806317c5993a1461025a5780632203959e146102785780632339e263146102a8576101cf565b806306df453e146101d45780630d24d568146101f0578063122545821461020e575b600080fd5b6101ee60048036038101906101e99190612c44565b610540565b005b6101f861099c565b60405161020591906137e0565b60405180910390f35b61022860048036038101906102239190612c6d565b6109a2565b6040516102359190613543565b60405180910390f35b61025860048036038101906102539190612c44565b610c5d565b005b610262610f75565b60405161026f91906137e0565b60405180910390f35b610292600480360381019061028d9190612c44565b610f7b565b60405161029f9190613543565b60405180910390f35b6102c260048036038101906102bd9190612ce5565b610f9b565b005b6102de60048036038101906102d99190612c44565b611096565b6040516102eb9190613543565b60405180910390f35b61030e60048036038101906103099190612ce5565b61126a565b005b61032a60048036038101906103259190612c44565b611327565b6040516103379190613543565b60405180910390f35b61035a60048036038101906103559190612c44565b611347565b6040516103679190613468565b60405180910390f35b61037861137a565b6040516103859190613468565b60405180910390f35b6103a860048036038101906103a39190612c44565b6113e1565b005b6103b261156c565b6040516103bf9190613468565b60405180910390f35b6103d0611592565b005b6103ec60048036038101906103e79190612c44565b6116b0565b005b6103f6611a74565b005b610412600480360381019061040d9190612c6d565b611afc565b60405161041f9190613543565b60405180910390f35b610430611c54565b005b61043a611d5b565b6040516104479190613468565b60405180910390f35b610458611d85565b6040516104659190613468565b60405180910390f35b61048860048036038101906104839190612d0e565b611e4b565b005b6104a4600480360381019061049f9190612ca9565b611f1c565b005b6104ae61202c565b005b6104b8612272565b005b6104c2612306565b6040516104cf91906137fb565b60405180910390f35b6104f260048036038101906104ed9190612c44565b612319565b005b61050e60048036038101906105099190612c44565b612410565b60405161051b9190613468565b60405180910390f35b61053e60048036038101906105399190612c44565b6126bd565b005b3373ffffffffffffffffffffffffffffffffffffffff1660686000606960003373ffffffffffffffffffffffffffffffffffffffff1673ffffffffffffffffffffffffffffffffffffffff16815260200190815260200160002060009054906101000a900473ffffffffffffffffffffffffffffffffffffffff1673ffffffffffffffffffffffffffffffffffffffff1673ffffffffffffffffffffffffffffffffffffffff16815260200190815260200160002060009054906101000a900473ffffffffffffffffffffffffffffffffffffffff1673ffffffffffffffffffffffffffffffffffffffff161461066c576040517f08c379a0000000000000000000000000000000000000000000000000000000008152600401610663906136c0565b60405180910390fd5b600073ffffffffffffffffffffffffffffffffffffffff168173ffffffffffffffffffffffffffffffffffffffff1614156106dc576040517f08c379a00000000000000000000000000000000000000000000000000000000081526004016106d3906136a0565b60405180910390fd5b3373ffffffffffffffffffffffffffffffffffffffff168173ffffffffffffffffffffffffffffffffffffffff16141561074b576040517f08c379a000000000000000000000000000000000000000000000000000000000815260040161074290613760565b60405180910390fd5b6000606960003373ffffffffffffffffffffffffffffffffffffffff1673ffffffffffffffffffffffffffffffffffffffff16815260200190815260200160002060009054906101000a900473ffffffffffffffffffffffffffffffffffffffff1690508073ffffffffffffffffffffffffffffffffffffffff16606a60008473ffffffffffffffffffffffffffffffffffffffff1673ffffffffffffffffffffffffffffffffffffffff16815260200190815260200160002060009054906101000a900473ffffffffffffffffffffffffffffffffffffffff1673ffffffffffffffffffffffffffffffffffffffff161461087c576040517f08c379a000000000000000000000000000000000000000000000000000000000815260040161087390613700565b60405180910390fd5b80606960008473ffffffffffffffffffffffffffffffffffffffff1673ffffffffffffffffffffffffffffffffffffffff16815260200190815260200160002060006101000a81548173ffffffffffffffffffffffffffffffffffffffff021916908373ffffffffffffffffffffffffffffffffffffffff160217905550606a60008373ffffffffffffffffffffffffffffffffffffffff1673ffffffffffffffffffffffffffffffffffffffff16815260200190815260200160002060006101000a81549073ffffffffffffffffffffffffffffffffffffffff02191690557f3d3123fb2e0b146695c48e76e09ccb69b4c20a06e7c1de802bfb6ea11f2b436581836001604051610990939291906134e3565b60405180910390a15050565b60665481565b600060011515606c6000606d60003373ffffffffffffffffffffffffffffffffffffffff1673ffffffffffffffffffffffffffffffffffffffff16815260200190815260200160002060009054906101000a900473ffffffffffffffffffffffffffffffffffffffff1673ffffffffffffffffffffffffffffffffffffffff1673ffffffffffffffffffffffffffffffffffffffff16815260200190815260200160002060009054906101000a900460ff16151514610a96576040517f08c379a0000000000000000000000000000000000000000000000000000000008152600401610a8d90613680565b60405180910390fd5b606960008473ffffffffffffffffffffffffffffffffffffffff1673ffffffffffffffffffffffffffffffffffffffff16815260200190815260200160002060009054906101000a900473ffffffffffffffffffffffffffffffffffffffff1673ffffffffffffffffffffffffffffffffffffffff168273ffffffffffffffffffffffffffffffffffffffff1614610b63576040517f08c379a0000000000000000000000000000000000000000000000000000000008152600401610b5a90613740565b60405180910390fd5b606b60009054906101000a900473ffffffffffffffffffffffffffffffffffffffff1673ffffffffffffffffffffffffffffffffffffffff16606860008473ffffffffffffffffffffffffffffffffffffffff1673ffffffffffffffffffffffffffffffffffffffff16815260200190815260200160002060009054906101000a900473ffffffffffffffffffffffffffffffffffffffff1673ffffffffffffffffffffffffffffffffffffffff161415610c53576040517f08c379a0000000000000000000000000000000000000000000000000000000008152600401610c4a90613600565b60405180910390fd5b6001905092915050565b3373ffffffffffffffffffffffffffffffffffffffff1660686000606960003373ffffffffffffffffffffffffffffffffffffffff1673ffffffffffffffffffffffffffffffffffffffff16815260200190815260200160002060009054906101000a900473ffffffffffffffffffffffffffffffffffffffff1673ffffffffffffffffffffffffffffffffffffffff1673ffffffffffffffffffffffffffffffffffffffff16815260200190815260200160002060009054906101000a900473ffffffffffffffffffffffffffffffffffffffff1673ffffffffffffffffffffffffffffffffffffffff1614610d89576040517f08c379a0000000000000000000000000000000000000000000000000000000008152600401610d80906136c0565b60405180910390fd5b6000606960003373ffffffffffffffffffffffffffffffffffffffff1673ffffffffffffffffffffffffffffffffffffffff16815260200190815260200160002060009054906101000a900473ffffffffffffffffffffffffffffffffffffffff1690508073ffffffffffffffffffffffffffffffffffffffff16606960008473ffffffffffffffffffffffffffffffffffffffff1673ffffffffffffffffffffffffffffffffffffffff16815260200190815260200160002060009054906101000a900473ffffffffffffffffffffffffffffffffffffffff1673ffffffffffffffffffffffffffffffffffffffff1614610eba576040517f08c379a0000000000000000000000000000000000000000000000000000000008152600401610eb1906137a0565b60405180910390fd5b81606860008373ffffffffffffffffffffffffffffffffffffffff1673ffffffffffffffffffffffffffffffffffffffff16815260200190815260200160002060006101000a81548173ffffffffffffffffffffffffffffffffffffffff021916908373ffffffffffffffffffffffffffffffffffffffff1602179055507f325abfca58119f9dec552cd3c96906dc876e515a247080eb489ed67e4f1acfdd8183604051610f69929190613483565b60405180910390a15050565b60675481565b606c6020528060005260406000206000915054906101000a900460ff1681565b610fa36127b5565b73ffffffffffffffffffffffffffffffffffffffff16610fc1611d5b565b73ffffffffffffffffffffffffffffffffffffffff1614611017576040517f08c379a000000000000000000000000000000000000000000000000000000000815260040161100e90613720565b60405180910390fd5b6110556040518060400160405280600f81526020017f73657441747461636b57696e646f7700000000000000000000000000000000008152506127bd565b806066819055507f2f8c31a5d1a0a6dec82499c709c5b976450a5159c24bc248123b173f9ac475018160405161108b91906137e0565b60405180910390a150565b600060011515606c6000606d60003373ffffffffffffffffffffffffffffffffffffffff1673ffffffffffffffffffffffffffffffffffffffff16815260200190815260200160002060009054906101000a900473ffffffffffffffffffffffffffffffffffffffff1673ffffffffffffffffffffffffffffffffffffffff1673ffffffffffffffffffffffffffffffffffffffff16815260200190815260200160002060009054906101000a900460ff1615151461118a576040517f08c379a000000000000000000000000000000000000000000000000000000000815260040161118190613680565b60405180910390fd5b606b60009054906101000a900473ffffffffffffffffffffffffffffffffffffffff16606860008473ffffffffffffffffffffffffffffffffffffffff1673ffffffffffffffffffffffffffffffffffffffff16815260200190815260200160002060006101000a81548173ffffffffffffffffffffffffffffffffffffffff021916908373ffffffffffffffffffffffffffffffffffffffff1602179055507f86b6b00c2c814fed47d22995306f14379ab2f96b9a556428f89ef2f1ab7b46c7826040516112599190613468565b60405180910390a160019050919050565b6112726127b5565b73ffffffffffffffffffffffffffffffffffffffff16611290611d5b565b73ffffffffffffffffffffffffffffffffffffffff16146112e6576040517f08c379a00000000000000000000000000000000000000000000000000000000081526004016112dd90613720565b60405180910390fd5b806067819055507f8576a6dd0cb347b510a74d083f8973816ce21575177d7a0da49ab0230be9ed288160405161131c91906137e0565b60405180910390a150565b606e6020528060005260406000206000915054906101000a900460ff1681565b606d6020528060005260406000206000915054906101000a900473ffffffffffffffffffffffffffffffffffffffff1681565b6000606960003373ffffffffffffffffffffffffffffffffffffffff1673ffffffffffffffffffffffffffffffffffffffff16815260200190815260200160002060009054906101000a900473ffffffffffffffffffffffffffffffffffffffff16905090565b600073ffffffffffffffffffffffffffffffffffffffff16606960003373ffffffffffffffffffffffffffffffffffffffff1673ffffffffffffffffffffffffffffffffffffffff16815260200190815260200160002060009054906101000a900473ffffffffffffffffffffffffffffffffffffffff1673ffffffffffffffffffffffffffffffffffffffff16146114af576040517f08c379a00000000000000000000000000000000000000000000000000000000081526004016114a6906137c0565b60405180910390fd5b80606a60003373ffffffffffffffffffffffffffffffffffffffff1673ffffffffffffffffffffffffffffffffffffffff16815260200190815260200160002060006101000a81548173ffffffffffffffffffffffffffffffffffffffff021916908373ffffffffffffffffffffffffffffffffffffffff1602179055507f3d3123fb2e0b146695c48e76e09ccb69b4c20a06e7c1de802bfb6ea11f2b436581336000604051611561939291906134e3565b60405180910390a150565b606560019054906101000a900473ffffffffffffffffffffffffffffffffffffffff1681565b60011515606e60003373ffffffffffffffffffffffffffffffffffffffff1673ffffffffffffffffffffffffffffffffffffffff16815260200190815260200160002060009054906101000a900460ff16151514611625576040517f08c379a000000000000000000000000000000000000000000000000000000000815260040161161c90613660565b60405180910390fd5b606e60003373ffffffffffffffffffffffffffffffffffffffff1673ffffffffffffffffffffffffffffffffffffffff16815260200190815260200160002060006101000a81549060ff02191690557fe650729918d1feefffb934d3577cd55650d7b4ca398097259a8daeccf2db70283360006040516116a692919061351a565b60405180910390a1565b3373ffffffffffffffffffffffffffffffffffffffff1660686000606960003373ffffffffffffffffffffffffffffffffffffffff1673ffffffffffffffffffffffffffffffffffffffff16815260200190815260200160002060009054906101000a900473ffffffffffffffffffffffffffffffffffffffff1673ffffffffffffffffffffffffffffffffffffffff1673ffffffffffffffffffffffffffffffffffffffff16815260200190815260200160002060009054906101000a900473ffffffffffffffffffffffffffffffffffffffff1673ffffffffffffffffffffffffffffffffffffffff16146117dc576040517f08c379a00000000000000000000000000000000000000000000000000000000081526004016117d3906136c0565b60405180910390fd5b3373ffffffffffffffffffffffffffffffffffffffff168173ffffffffffffffffffffffffffffffffffffffff16141561184b576040517f08c379a0000000000000000000000000000000000000000000000000000000008152600401611842906135c0565b60405180910390fd5b606960008273ffffffffffffffffffffffffffffffffffffffff1673ffffffffffffffffffffffffffffffffffffffff16815260200190815260200160002060009054906101000a900473ffffffffffffffffffffffffffffffffffffffff1673ffffffffffffffffffffffffffffffffffffffff16606960003373ffffffffffffffffffffffffffffffffffffffff1673ffffffffffffffffffffffffffffffffffffffff16815260200190815260200160002060009054906101000a900473ffffffffffffffffffffffffffffffffffffffff1673ffffffffffffffffffffffffffffffffffffffff1614611977576040517f08c379a000000000000000000000000000000000000000000000000000000000815260040161196e90613780565b60405180910390fd5b606960008273ffffffffffffffffffffffffffffffffffffffff1673ffffffffffffffffffffffffffffffffffffffff16815260200190815260200160002060006101000a81549073ffffffffffffffffffffffffffffffffffffffff02191690557f1e2a0b8a9fec5daa10c8ee616cd7c1d1570ae6c946e56405ce4719e415409579606960003373ffffffffffffffffffffffffffffffffffffffff1673ffffffffffffffffffffffffffffffffffffffff16815260200190815260200160002060009054906101000a900473ffffffffffffffffffffffffffffffffffffffff1682604051611a69929190613483565b60405180910390a150565b611a7c6127b5565b73ffffffffffffffffffffffffffffffffffffffff16611a9a611d5b565b73ffffffffffffffffffffffffffffffffffffffff1614611af0576040517f08c379a0000000000000000000000000000000000000000000000000000000008152600401611ae790613720565b60405180910390fd5b611afa6000612856565b565b600060011515606c60003373ffffffffffffffffffffffffffffffffffffffff1673ffffffffffffffffffffffffffffffffffffffff16815260200190815260200160002060009054906101000a900460ff16151514611b91576040517f08c379a0000000000000000000000000000000000000000000000000000000008152600401611b88906135a0565b60405180910390fd5b33606d60008573ffffffffffffffffffffffffffffffffffffffff1673ffffffffffffffffffffffffffffffffffffffff16815260200190815260200160002060006101000a81548173ffffffffffffffffffffffffffffffffffffffff021916908373ffffffffffffffffffffffffffffffffffffffff1602179055507fd02da1bec30f7f750aa0a131745dfb9ce96767c45a192dc26409f5d690e0b967838333604051611c42939291906134ac565b60405180910390a16001905092915050565b611c5c61291c565b611c9a6040518060400160405280600681526020017f73646673646600000000000000000000000000000000000000000000000000008152506127bd565b6003606560006101000a81548160ff021916908360ff160217905550611cbe611d5b565b606560016101000a81548173ffffffffffffffffffffffffffffffffffffffff021916908373ffffffffffffffffffffffffffffffffffffffff160217905550610708606681905550610e10606781905550676578706c6f646564606b60006101000a81548173ffffffffffffffffffffffffffffffffffffffff021916908373ffffffffffffffffffffffffffffffffffffffff160217905550565b6000603360009054906101000a900473ffffffffffffffffffffffffffffffffffffffff16905090565b600060686000606960003373ffffffffffffffffffffffffffffffffffffffff1673ffffffffffffffffffffffffffffffffffffffff16815260200190815260200160002060009054906101000a900473ffffffffffffffffffffffffffffffffffffffff1673ffffffffffffffffffffffffffffffffffffffff1673ffffffffffffffffffffffffffffffffffffffff16815260200190815260200160002060009054906101000a900473ffffffffffffffffffffffffffffffffffffffff16905090565b611e536127b5565b73ffffffffffffffffffffffffffffffffffffffff16611e71611d5b565b73ffffffffffffffffffffffffffffffffffffffff1614611ec7576040517f08c379a0000000000000000000000000000000000000000000000000000000008152600401611ebe90613720565b60405180910390fd5b80606560006101000a81548160ff021916908360ff1602179055507f22fd2bd5dbd415f0702c9c3aea01c7ba1fc13b92d166b1a3533cf530c82bff5e81604051611f1191906137fb565b60405180910390a150565b611f246127b5565b73ffffffffffffffffffffffffffffffffffffffff16611f42611d5b565b73ffffffffffffffffffffffffffffffffffffffff1614611f98576040517f08c379a0000000000000000000000000000000000000000000000000000000008152600401611f8f90613720565b60405180910390fd5b80606c60008473ffffffffffffffffffffffffffffffffffffffff1673ffffffffffffffffffffffffffffffffffffffff16815260200190815260200160002060006101000a81548160ff0219169083151502179055507fec48c4a53bc66a4375656467c692f9cda3ab5fc839e0e99add20936b745e6055828260405161202092919061351a565b60405180910390a15050565b6000606960003373ffffffffffffffffffffffffffffffffffffffff1673ffffffffffffffffffffffffffffffffffffffff16815260200190815260200160002060009054906101000a900473ffffffffffffffffffffffffffffffffffffffff169050600073ffffffffffffffffffffffffffffffffffffffff168173ffffffffffffffffffffffffffffffffffffffff161415612100576040517f08c379a00000000000000000000000000000000000000000000000000000000081526004016120f790613620565b60405180910390fd5b6000606860008373ffffffffffffffffffffffffffffffffffffffff1673ffffffffffffffffffffffffffffffffffffffff16815260200190815260200160002060009054906101000a900473ffffffffffffffffffffffffffffffffffffffff1690503373ffffffffffffffffffffffffffffffffffffffff168173ffffffffffffffffffffffffffffffffffffffff1614156121d3576040517f08c379a00000000000000000000000000000000000000000000000000000000081526004016121ca906135e0565b60405180910390fd5b606960003373ffffffffffffffffffffffffffffffffffffffff1673ffffffffffffffffffffffffffffffffffffffff16815260200190815260200160002060006101000a81549073ffffffffffffffffffffffffffffffffffffffff02191690557f1e2a0b8a9fec5daa10c8ee616cd7c1d1570ae6c946e56405ce4719e4154095798233604051612266929190613483565b60405180910390a15050565b6001606e60003373ffffffffffffffffffffffffffffffffffffffff1673ffffffffffffffffffffffffffffffffffffffff16815260200190815260200160002060006101000a81548160ff0219169083151502179055507fe650729918d1feefffb934d3577cd55650d7b4ca398097259a8daeccf2db70283360016040516122fc92919061351a565b60405180910390a1565b606560009054906101000a900460ff1681565b6123216127b5565b73ffffffffffffffffffffffffffffffffffffffff1661233f611d5b565b73ffffffffffffffffffffffffffffffffffffffff1614612395576040517f08c379a000000000000000000000000000000000000000000000000000000000815260040161238c90613720565b60405180910390fd5b80606560016101000a81548173ffffffffffffffffffffffffffffffffffffffff021916908373ffffffffffffffffffffffffffffffffffffffff1602179055507fafa147634b29e2c7bd53ce194256b9f41cfb9ba3036f2b822fdd1d965beea086816040516124059190613468565b60405180910390a150565b60008073ffffffffffffffffffffffffffffffffffffffff168273ffffffffffffffffffffffffffffffffffffffff161415612481576040517f08c379a0000000000000000000000000000000000000000000000000000000008152600401612478906136a0565b60405180910390fd5b600073ffffffffffffffffffffffffffffffffffffffff16606960008473ffffffffffffffffffffffffffffffffffffffff1673ffffffffffffffffffffffffffffffffffffffff16815260200190815260200160002060009054906101000a900473ffffffffffffffffffffffffffffffffffffffff1673ffffffffffffffffffffffffffffffffffffffff161461254f576040517f08c379a000000000000000000000000000000000000000000000000000000000815260040161254690613580565b60405180910390fd5b6000824260405160200161256492919061343c565b6040516020818303038152906040528051906020012060001c905082606860008373ffffffffffffffffffffffffffffffffffffffff1673ffffffffffffffffffffffffffffffffffffffff16815260200190815260200160002060006101000a81548173ffffffffffffffffffffffffffffffffffffffff021916908373ffffffffffffffffffffffffffffffffffffffff16021790555080606960008573ffffffffffffffffffffffffffffffffffffffff1673ffffffffffffffffffffffffffffffffffffffff16815260200190815260200160002060006101000a81548173ffffffffffffffffffffffffffffffffffffffff021916908373ffffffffffffffffffffffffffffffffffffffff1602179055507f4bbb10c11c6c8c35689f097fa303b69ba45da8472d34886663ebbf3b1a42ce2881846040516126ac929190613483565b60405180910390a180915050919050565b6126c56127b5565b73ffffffffffffffffffffffffffffffffffffffff166126e3611d5b565b73ffffffffffffffffffffffffffffffffffffffff1614612739576040517f08c379a000000000000000000000000000000000000000000000000000000000815260040161273090613720565b60405180910390fd5b600073ffffffffffffffffffffffffffffffffffffffff168173ffffffffffffffffffffffffffffffffffffffff1614156127a9576040517f08c379a00000000000000000000000000000000000000000000000000000000081526004016127a090613640565b60405180910390fd5b6127b281612856565b50565b600033905090565b612853816040516024016127d1919061355e565b6040516020818303038152906040527f41304fac000000000000000000000000000000000000000000000000000000007bffffffffffffffffffffffffffffffffffffffffffffffffffffffff19166020820180517bffffffffffffffffffffffffffffffffffffffffffffffffffffffff8381831617835250505050612a05565b50565b6000603360009054906101000a900473ffffffffffffffffffffffffffffffffffffffff16905081603360006101000a81548173ffffffffffffffffffffffffffffffffffffffff021916908373ffffffffffffffffffffffffffffffffffffffff1602179055508173ffffffffffffffffffffffffffffffffffffffff168173ffffffffffffffffffffffffffffffffffffffff167f8be0079c531659141344cd1fd0a4f28419497f9722a3daafe3b4186f6b6457e060405160405180910390a35050565b600060019054906101000a900460ff1680612942575060008054906101000a900460ff16155b612981576040517f08c379a0000000000000000000000000000000000000000000000000000000008152600401612978906136e0565b60405180910390fd5b60008060019054906101000a900460ff1615905080156129d1576001600060016101000a81548160ff02191690831515021790555060016000806101000a81548160ff0219169083151502179055505b6129d9612a2e565b6129e1612b07565b8015612a025760008060016101000a81548160ff0219169083151502179055505b50565b60008151905060006a636f6e736f6c652e6c6f679050602083016000808483855afa5050505050565b600060019054906101000a900460ff1680612a54575060008054906101000a900460ff16155b612a93576040517f08c379a0000000000000000000000000000000000000000000000000000000008152600401612a8a906136e0565b60405180910390fd5b60008060019054906101000a900460ff161590508015612ae3576001600060016101000a81548160ff02191690831515021790555060016000806101000a81548160ff0219169083151502179055505b8015612b045760008060016101000a81548160ff0219169083151502179055505b50565b600060019054906101000a900460ff1680612b2d575060008054906101000a900460ff16155b612b6c576040517f08c379a0000000000000000000000000000000000000000000000000000000008152600401612b63906136e0565b60405180910390fd5b60008060019054906101000a900460ff161590508015612bbc576001600060016101000a81548160ff02191690831515021790555060016000806101000a81548160ff0219169083151502179055505b612bcc612bc76127b5565b612856565b8015612bed5760008060016101000a81548160ff0219169083151502179055505b50565b600081359050612bff81613906565b92915050565b600081359050612c148161391d565b92915050565b600081359050612c2981613934565b92915050565b600081359050612c3e8161394b565b92915050565b600060208284031215612c5657600080fd5b6000612c6484828501612bf0565b91505092915050565b60008060408385031215612c8057600080fd5b6000612c8e85828601612bf0565b9250506020612c9f85828601612bf0565b9150509250929050565b60008060408385031215612cbc57600080fd5b6000612cca85828601612bf0565b9250506020612cdb85828601612c05565b9150509250929050565b600060208284031215612cf757600080fd5b6000612d0584828501612c1a565b91505092915050565b600060208284031215612d2057600080fd5b6000612d2e84828501612c2f565b91505092915050565b612d4081613832565b82525050565b612d57612d5282613832565b6138ba565b82525050565b612d6681613844565b82525050565b6000612d7782613816565b612d818185613821565b9350612d91818560208601613887565b612d9a816138e8565b840191505092915050565b6000612db2602783613821565b91507f4164647265737320697320616c726561647920616e206f776e6572206f72206460008301527f656c6567617465000000000000000000000000000000000000000000000000006020830152604082019050919050565b6000612e18601c83613821565b91507f506f6f6c20666163746f7279206973206e6f7420617070726f766564000000006000830152602082019050919050565b6000612e58601583613821565b91507f43616e6e6f742072656d6f7665206f6e6573656c6600000000000000000000006000830152602082019050919050565b6000612e98601c83613821565b91507f43616e6e6f742072656d6f7665206964656e74697479206f776e6572000000006000830152602082019050919050565b6000612ed8602183613821565b91507f5570616c613a2054686520696420697320616c7265616479206578706c6f646560008301527f64000000000000000000000000000000000000000000000000000000000000006020830152604082019050919050565b6000612f3e601283613821565b91507f4d75737420626520612064656c656761746500000000000000000000000000006000830152602082019050919050565b6000612f7e602683613821565b91507f4f776e61626c653a206e6577206f776e657220697320746865207a65726f206160008301527f64647265737300000000000000000000000000000000000000000000000000006020830152604082019050919050565b6000612fe4601683613821565b91507f44417070206973206e6f742072656769737465726564000000000000000000006000830152602082019050919050565b6000613024602283613821565b91507f506172656e7420706f6f6c20666163746f727920697320646973617070726f7660008301527f65640000000000000000000000000000000000000000000000000000000000006020830152604082019050919050565b600061308a601a83613821565b91507f43616e6e6f742075736520616e20656d707479206164646573730000000000006000830152602082019050919050565b60006130ca603083613821565b91507f4f6e6c79206964656e7469747920686f6c6465722063616e20616464206f722060008301527f72656d6f76652064656c656761746573000000000000000000000000000000006020830152604082019050919050565b6000613130602e83613821565b91507f496e697469616c697a61626c653a20636f6e747261637420697320616c72656160008301527f647920696e697469616c697a65640000000000000000000000000000000000006020830152604082019050919050565b6000613196602783613821565b91507f44656c656761746565206d75737420636f6e6669726d2064656c65676174696f60008301527f6e206669727374000000000000000000000000000000000000000000000000006020830152604082019050919050565b60006131fc602083613821565b91507f4f776e61626c653a2063616c6c6572206973206e6f7420746865206f776e65726000830152602082019050919050565b600061323c603b83613821565b91507f5570616c613a204e6f20737563682069642c206e6f7420616e206f776e65722060008301527f6f72206e6f7420612064656c6567617465206f662074686520696400000000006020830152604082019050919050565b60006132a2602283613821565b91507f43616e6e6f7420617070726f7665206f6e6573656c662061732064656c65676160008301527f74650000000000000000000000000000000000000000000000000000000000006020830152604082019050919050565b6000613308602e83613821565b91507f5570616c614964206d7573742062652073616d6520666f722064656c6567617460008301527f6520616e64206964206f776e65720000000000000000000000000000000000006020830152604082019050919050565b600061336e602d83613821565b91507f41646472657373206973206e6f7420612064656c656761746520666f7220637560008301527f7272656e74205570616c614964000000000000000000000000000000000000006020830152604082019050919050565b60006133d4601283613821565b91507f416c726561647920612064656c656761746500000000000000000000000000006000830152602082019050919050565b61341081613870565b82525050565b61342761342282613870565b6138de565b82525050565b6134368161387a565b82525050565b60006134488285612d46565b6014820191506134588284613416565b6020820191508190509392505050565b600060208201905061347d6000830184612d37565b92915050565b60006040820190506134986000830185612d37565b6134a56020830184612d37565b9392505050565b60006060820190506134c16000830186612d37565b6134ce6020830185612d37565b6134db6040830184612d37565b949350505050565b60006060820190506134f86000830186612d37565b6135056020830185612d37565b6135126040830184612d5d565b949350505050565b600060408201905061352f6000830185612d37565b61353c6020830184612d5d565b9392505050565b60006020820190506135586000830184612d5d565b92915050565b600060208201905081810360008301526135788184612d6c565b905092915050565b6000602082019050818103600083015261359981612da5565b9050919050565b600060208201905081810360008301526135b981612e0b565b9050919050565b600060208201905081810360008301526135d981612e4b565b9050919050565b600060208201905081810360008301526135f981612e8b565b9050919050565b6000602082019050818103600083015261361981612ecb565b9050919050565b6000602082019050818103600083015261363981612f31565b9050919050565b6000602082019050818103600083015261365981612f71565b9050919050565b6000602082019050818103600083015261367981612fd7565b9050919050565b6000602082019050818103600083015261369981613017565b9050919050565b600060208201905081810360008301526136b98161307d565b9050919050565b600060208201905081810360008301526136d9816130bd565b9050919050565b600060208201905081810360008301526136f981613123565b9050919050565b6000602082019050818103600083015261371981613189565b9050919050565b60006020820190508181036000830152613739816131ef565b9050919050565b600060208201905081810360008301526137598161322f565b9050919050565b6000602082019050818103600083015261377981613295565b9050919050565b60006020820190508181036000830152613799816132fb565b9050919050565b600060208201905081810360008301526137b981613361565b9050919050565b600060208201905081810360008301526137d9816133c7565b9050919050565b60006020820190506137f56000830184613407565b92915050565b6000602082019050613810600083018461342d565b92915050565b600081519050919050565b600082825260208201905092915050565b600061383d82613850565b9050919050565b60008115159050919050565b600073ffffffffffffffffffffffffffffffffffffffff82169050919050565b6000819050919050565b600060ff82169050919050565b60005b838110156138a557808201518184015260208101905061388a565b838111156138b4576000848401525b50505050565b60006138c5826138cc565b9050919050565b60006138d7826138f9565b9050919050565b6000819050919050565b6000601f19601f8301169050919050565b60008160601b9050919050565b61390f81613832565b811461391a57600080fd5b50565b61392681613844565b811461393157600080fd5b50565b61393d81613870565b811461394857600080fd5b50565b6139548161387a565b811461395f57600080fd5b5056fea26469706673582212205de85bdfe81dd11424e802619ec9325e044ad8c1cebcda33ac6d21795334888264736f6c63430008000033",
  "linkReferences": {},
  "deployedLinkReferences": {}
}