{
  "_format": "hh-sol-artifact-1",
  "contractName": "Upala",
  "sourceName": "contracts/protocol/upala.sol",
  "abi": [
    {
      "anonymous": false,
      "inputs": [
        {
          "indexed": false,
          "internalType": "address",
          "name": "upalaId",
          "type": "address"
        }
      ],
      "name": "Exploded",
      "type": "event"
    },
    {
      "anonymous": false,
      "inputs": [
        {
          "indexed": false,
          "internalType": "uint256",
          "name": "newWindow",
          "type": "uint256"
        }
      ],
      "name": "NewAttackWindow",
      "type": "event"
    },
    {
      "anonymous": false,
      "inputs": [
        {
          "indexed": false,
          "internalType": "address",
          "name": "dappAddress",
          "type": "address"
        },
        {
          "indexed": false,
          "internalType": "bool",
          "name": "isRegistered",
          "type": "bool"
        }
      ],
      "name": "NewDAppStatus",
      "type": "event"
    },
    {
      "anonymous": false,
      "inputs": [
        {
          "indexed": false,
          "internalType": "address",
          "name": "upalaId",
          "type": "address"
        },
        {
          "indexed": false,
          "internalType": "address",
          "name": "delegate",
          "type": "address"
        },
        {
          "indexed": false,
          "internalType": "bool",
          "name": "isApproved",
          "type": "bool"
        }
      ],
      "name": "NewDelegateStatus",
      "type": "event"
    },
    {
      "anonymous": false,
      "inputs": [
        {
          "indexed": false,
          "internalType": "uint256",
          "name": "newWindow",
          "type": "uint256"
        }
      ],
      "name": "NewExecutionWindow",
      "type": "event"
    },
    {
      "anonymous": false,
      "inputs": [
        {
          "indexed": false,
          "internalType": "uint8",
          "name": "newFee",
          "type": "uint8"
        }
      ],
      "name": "NewExplosionFeePercent",
      "type": "event"
    },
    {
      "anonymous": false,
      "inputs": [
        {
          "indexed": false,
          "internalType": "address",
          "name": "upalaId",
          "type": "address"
        },
        {
          "indexed": false,
          "internalType": "address",
          "name": "owner",
          "type": "address"
        }
      ],
      "name": "NewIdentity",
      "type": "event"
    },
    {
      "anonymous": false,
      "inputs": [
        {
          "indexed": false,
          "internalType": "address",
          "name": "upalaId",
          "type": "address"
        },
        {
          "indexed": false,
          "internalType": "address",
          "name": "owner",
          "type": "address"
        }
      ],
      "name": "NewIdentityOwner",
      "type": "event"
    },
    {
      "anonymous": false,
      "inputs": [
        {
          "indexed": false,
          "internalType": "address",
          "name": "poolAddress",
          "type": "address"
        },
        {
          "indexed": false,
          "internalType": "address",
          "name": "poolManager",
          "type": "address"
        },
        {
          "indexed": false,
          "internalType": "address",
          "name": "factory",
          "type": "address"
        }
      ],
      "name": "NewPool",
      "type": "event"
    },
    {
      "anonymous": false,
      "inputs": [
        {
          "indexed": false,
          "internalType": "address",
          "name": "poolFactory",
          "type": "address"
        },
        {
          "indexed": false,
          "internalType": "bool",
          "name": "isApproved",
          "type": "bool"
        }
      ],
      "name": "NewPoolFactoryStatus",
      "type": "event"
    },
    {
      "anonymous": false,
      "inputs": [
        {
          "indexed": false,
          "internalType": "address",
          "name": "newTreasury",
          "type": "address"
        }
      ],
      "name": "NewTreasury",
      "type": "event"
    },
    {
      "anonymous": false,
      "inputs": [
        {
          "indexed": true,
          "internalType": "address",
          "name": "previousOwner",
          "type": "address"
        },
        {
          "indexed": true,
          "internalType": "address",
          "name": "newOwner",
          "type": "address"
        }
      ],
      "name": "OwnershipTransferred",
      "type": "event"
    },
    {
      "inputs": [
        {
          "internalType": "address",
          "name": "delegate",
          "type": "address"
        }
      ],
      "name": "approveDelegate",
      "outputs": [],
      "stateMutability": "nonpayable",
      "type": "function"
    },
    {
      "inputs": [
        {
          "internalType": "address",
          "name": "upalaId",
          "type": "address"
        }
      ],
      "name": "approveDelegation",
      "outputs": [],
      "stateMutability": "nonpayable",
      "type": "function"
    },
    {
      "inputs": [
        {
          "internalType": "address",
          "name": "poolFactory",
          "type": "address"
        },
        {
          "internalType": "bool",
          "name": "isApproved",
          "type": "bool"
        }
      ],
      "name": "approvePoolFactory",
      "outputs": [],
      "stateMutability": "nonpayable",
      "type": "function"
    },
    {
      "inputs": [
        {
          "internalType": "address",
          "name": "",
          "type": "address"
        }
      ],
      "name": "approvedPoolFactories",
      "outputs": [
        {
          "internalType": "bool",
          "name": "",
          "type": "bool"
        }
      ],
      "stateMutability": "view",
      "type": "function"
    },
    {
      "inputs": [],
      "name": "attackWindow",
      "outputs": [
        {
          "internalType": "uint256",
          "name": "",
          "type": "uint256"
        }
      ],
      "stateMutability": "view",
      "type": "function"
    },
    {
      "inputs": [],
      "name": "executionWindow",
      "outputs": [
        {
          "internalType": "uint256",
          "name": "",
          "type": "uint256"
        }
      ],
      "stateMutability": "view",
      "type": "function"
    },
    {
      "inputs": [
        {
          "internalType": "address",
          "name": "identity",
          "type": "address"
        }
      ],
      "name": "explode",
      "outputs": [
        {
          "internalType": "bool",
          "name": "",
          "type": "bool"
        }
      ],
      "stateMutability": "nonpayable",
      "type": "function"
    },
    {
      "inputs": [],
      "name": "explosionFeePercent",
      "outputs": [
        {
          "internalType": "uint8",
          "name": "",
          "type": "uint8"
        }
      ],
      "stateMutability": "view",
      "type": "function"
    },
    {
      "inputs": [],
      "name": "initialize",
      "outputs": [],
      "stateMutability": "nonpayable",
      "type": "function"
    },
    {
      "inputs": [
        {
          "internalType": "address",
          "name": "ownerOrDelegate",
          "type": "address"
        },
        {
          "internalType": "address",
          "name": "identity",
          "type": "address"
        }
      ],
      "name": "isOwnerOrDelegate",
      "outputs": [
        {
          "internalType": "bool",
          "name": "",
          "type": "bool"
        }
      ],
      "stateMutability": "view",
      "type": "function"
    },
    {
      "inputs": [],
      "name": "myId",
      "outputs": [
        {
          "internalType": "address",
          "name": "",
          "type": "address"
        }
      ],
      "stateMutability": "view",
      "type": "function"
    },
    {
      "inputs": [],
      "name": "myIdOwner",
      "outputs": [
        {
          "internalType": "address",
          "name": "owner",
          "type": "address"
        }
      ],
      "stateMutability": "view",
      "type": "function"
    },
    {
      "inputs": [
        {
          "internalType": "address",
          "name": "newIdentityOwner",
          "type": "address"
        }
      ],
      "name": "newIdentity",
      "outputs": [
        {
          "internalType": "address",
          "name": "",
          "type": "address"
        }
      ],
      "stateMutability": "nonpayable",
      "type": "function"
    },
    {
      "inputs": [],
      "name": "owner",
      "outputs": [
        {
          "internalType": "address",
          "name": "",
          "type": "address"
        }
      ],
      "stateMutability": "view",
      "type": "function"
    },
    {
      "inputs": [
        {
          "internalType": "address",
          "name": "",
          "type": "address"
        }
      ],
      "name": "poolParent",
      "outputs": [
        {
          "internalType": "address",
          "name": "",
          "type": "address"
        }
      ],
      "stateMutability": "view",
      "type": "function"
    },
    {
      "inputs": [],
      "name": "registerDApp",
      "outputs": [],
      "stateMutability": "nonpayable",
      "type": "function"
    },
    {
      "inputs": [
        {
          "internalType": "address",
          "name": "newPool",
          "type": "address"
        },
        {
          "internalType": "address",
          "name": "poolManager",
          "type": "address"
        }
      ],
      "name": "registerPool",
      "outputs": [
        {
          "internalType": "bool",
          "name": "",
          "type": "bool"
        }
      ],
      "stateMutability": "nonpayable",
      "type": "function"
    },
    {
      "inputs": [
        {
          "internalType": "address",
          "name": "",
          "type": "address"
        }
      ],
      "name": "registeredDapps",
      "outputs": [
        {
          "internalType": "bool",
          "name": "",
          "type": "bool"
        }
      ],
      "stateMutability": "view",
      "type": "function"
    },
    {
      "inputs": [
        {
          "internalType": "address",
          "name": "delegate",
          "type": "address"
        }
      ],
      "name": "removeDelegate",
      "outputs": [],
      "stateMutability": "nonpayable",
      "type": "function"
    },
    {
      "inputs": [],
      "name": "renounceOwnership",
      "outputs": [],
      "stateMutability": "nonpayable",
      "type": "function"
    },
    {
      "inputs": [
        {
          "internalType": "uint256",
          "name": "newWindow",
          "type": "uint256"
        }
      ],
      "name": "setAttackWindow",
      "outputs": [],
      "stateMutability": "nonpayable",
      "type": "function"
    },
    {
      "inputs": [
        {
          "internalType": "uint256",
          "name": "newWindow",
          "type": "uint256"
        }
      ],
      "name": "setExecutionWindow",
      "outputs": [],
      "stateMutability": "nonpayable",
      "type": "function"
    },
    {
      "inputs": [
        {
          "internalType": "uint8",
          "name": "newFee",
          "type": "uint8"
        }
      ],
      "name": "setExplosionFeePercent",
      "outputs": [],
      "stateMutability": "nonpayable",
      "type": "function"
    },
    {
      "inputs": [
        {
          "internalType": "address",
          "name": "newIdentityOwner",
          "type": "address"
        }
      ],
      "name": "setIdentityOwner",
      "outputs": [],
      "stateMutability": "nonpayable",
      "type": "function"
    },
    {
      "inputs": [
        {
          "internalType": "address",
          "name": "newTreasury",
          "type": "address"
        }
      ],
      "name": "setTreasury",
      "outputs": [],
      "stateMutability": "nonpayable",
      "type": "function"
    },
    {
      "inputs": [],
      "name": "stopDelegation",
      "outputs": [],
      "stateMutability": "nonpayable",
      "type": "function"
    },
    {
      "inputs": [
        {
          "internalType": "address",
          "name": "newOwner",
          "type": "address"
        }
      ],
      "name": "transferOwnership",
      "outputs": [],
      "stateMutability": "nonpayable",
      "type": "function"
    },
    {
      "inputs": [],
      "name": "treasury",
      "outputs": [
        {
          "internalType": "address",
          "name": "",
          "type": "address"
        }
      ],
      "stateMutability": "view",
      "type": "function"
    },
    {
      "inputs": [],
      "name": "unRegisterDApp",
      "outputs": [],
      "stateMutability": "nonpayable",
      "type": "function"
    }
  ],
  "bytecode": "0x608060405234801561001057600080fd5b50613962806100206000396000f3fe608060405234801561001057600080fd5b50600436106101cf5760003560e01c80636460217d11610104578063b2fe76a7116100a2578063e600375b11610071578063e600375b146104ba578063f0f44260146104d8578063f18c03c4146104f4578063f2fde38b14610524576101cf565b8063b2fe76a71461046e578063be8113541461048a578063cbf8dfe9146104a6578063d43c020f146104b0576101cf565b80637286e5e5116100de5780637286e5e5146103f85780638129fc1c146104285780638da5cb5b1461043257806396c9c98514610450576101cf565b80636460217d146103c857806367e7646f146103d2578063715018a6146103ee576101cf565b80632b7c7f5d116101715780633f4978881161014b5780633f4978881461034057806354e0d6a8146103705780635e305d791461038e57806361d027b3146103aa576101cf565b80632b7c7f5d146102c457806330b93c49146102f4578063325b2dbc14610310576101cf565b806312e4ba1e116101ad57806312e4ba1e1461023e57806317c5993a1461025a5780632203959e146102785780632339e263146102a8576101cf565b806306df453e146101d45780630d24d568146101f0578063122545821461020e575b600080fd5b6101ee60048036038101906101e99190612c0e565b610540565b005b6101f861099c565b60405161020591906137aa565b60405180910390f35b61022860048036038101906102239190612c37565b6109a2565b604051610235919061350d565b60405180910390f35b61025860048036038101906102539190612c0e565b610c5d565b005b610262610f75565b60405161026f91906137aa565b60405180910390f35b610292600480360381019061028d9190612c0e565b610f7b565b60405161029f919061350d565b60405180910390f35b6102c260048036038101906102bd9190612caf565b610f9b565b005b6102de60048036038101906102d99190612c0e565b611096565b6040516102eb919061350d565b60405180910390f35b61030e60048036038101906103099190612caf565b61126a565b005b61032a60048036038101906103259190612c0e565b611327565b604051610337919061350d565b60405180910390f35b61035a60048036038101906103559190612c0e565b611347565b6040516103679190613432565b60405180910390f35b61037861137a565b6040516103859190613432565b60405180910390f35b6103a860048036038101906103a39190612c0e565b6113e1565b005b6103b2611530565b6040516103bf9190613432565b60405180910390f35b6103d0611556565b005b6103ec60048036038101906103e79190612c0e565b611674565b005b6103f6611a3b565b005b610412600480360381019061040d9190612c37565b611ac3565b60405161041f919061350d565b60405180910390f35b610430611c1b565b005b61043a611d22565b6040516104479190613432565b60405180910390f35b610458611d4c565b6040516104659190613432565b60405180910390f35b61048860048036038101906104839190612cd8565b611e12565b005b6104a4600480360381019061049f9190612c73565b611ee3565b005b6104ae611ff3565b005b6104b861223c565b005b6104c26122d0565b6040516104cf91906137c5565b60405180910390f35b6104f260048036038101906104ed9190612c0e565b6122e3565b005b61050e60048036038101906105099190612c0e565b6123da565b60405161051b9190613432565b60405180910390f35b61053e60048036038101906105399190612c0e565b612687565b005b3373ffffffffffffffffffffffffffffffffffffffff1660686000606960003373ffffffffffffffffffffffffffffffffffffffff1673ffffffffffffffffffffffffffffffffffffffff16815260200190815260200160002060009054906101000a900473ffffffffffffffffffffffffffffffffffffffff1673ffffffffffffffffffffffffffffffffffffffff1673ffffffffffffffffffffffffffffffffffffffff16815260200190815260200160002060009054906101000a900473ffffffffffffffffffffffffffffffffffffffff1673ffffffffffffffffffffffffffffffffffffffff161461066c576040517f08c379a00000000000000000000000000000000000000000000000000000000081526004016106639061368a565b60405180910390fd5b600073ffffffffffffffffffffffffffffffffffffffff168173ffffffffffffffffffffffffffffffffffffffff1614156106dc576040517f08c379a00000000000000000000000000000000000000000000000000000000081526004016106d39061366a565b60405180910390fd5b3373ffffffffffffffffffffffffffffffffffffffff168173ffffffffffffffffffffffffffffffffffffffff16141561074b576040517f08c379a00000000000000000000000000000000000000000000000000000000081526004016107429061372a565b60405180910390fd5b6000606960003373ffffffffffffffffffffffffffffffffffffffff1673ffffffffffffffffffffffffffffffffffffffff16815260200190815260200160002060009054906101000a900473ffffffffffffffffffffffffffffffffffffffff1690508073ffffffffffffffffffffffffffffffffffffffff16606a60008473ffffffffffffffffffffffffffffffffffffffff1673ffffffffffffffffffffffffffffffffffffffff16815260200190815260200160002060009054906101000a900473ffffffffffffffffffffffffffffffffffffffff1673ffffffffffffffffffffffffffffffffffffffff161461087c576040517f08c379a0000000000000000000000000000000000000000000000000000000008152600401610873906136ca565b60405180910390fd5b80606960008473ffffffffffffffffffffffffffffffffffffffff1673ffffffffffffffffffffffffffffffffffffffff16815260200190815260200160002060006101000a81548173ffffffffffffffffffffffffffffffffffffffff021916908373ffffffffffffffffffffffffffffffffffffffff160217905550606a60008373ffffffffffffffffffffffffffffffffffffffff1673ffffffffffffffffffffffffffffffffffffffff16815260200190815260200160002060006101000a81549073ffffffffffffffffffffffffffffffffffffffff02191690557f364f10d572789f2dfbe5322f48ed727836dc827bd29324cb1e17f90c7c04c6d981836001604051610990939291906134ad565b60405180910390a15050565b60665481565b600060011515606c6000606d60003373ffffffffffffffffffffffffffffffffffffffff1673ffffffffffffffffffffffffffffffffffffffff16815260200190815260200160002060009054906101000a900473ffffffffffffffffffffffffffffffffffffffff1673ffffffffffffffffffffffffffffffffffffffff1673ffffffffffffffffffffffffffffffffffffffff16815260200190815260200160002060009054906101000a900460ff16151514610a96576040517f08c379a0000000000000000000000000000000000000000000000000000000008152600401610a8d9061364a565b60405180910390fd5b606960008473ffffffffffffffffffffffffffffffffffffffff1673ffffffffffffffffffffffffffffffffffffffff16815260200190815260200160002060009054906101000a900473ffffffffffffffffffffffffffffffffffffffff1673ffffffffffffffffffffffffffffffffffffffff168273ffffffffffffffffffffffffffffffffffffffff1614610b63576040517f08c379a0000000000000000000000000000000000000000000000000000000008152600401610b5a9061370a565b60405180910390fd5b606b60009054906101000a900473ffffffffffffffffffffffffffffffffffffffff1673ffffffffffffffffffffffffffffffffffffffff16606860008473ffffffffffffffffffffffffffffffffffffffff1673ffffffffffffffffffffffffffffffffffffffff16815260200190815260200160002060009054906101000a900473ffffffffffffffffffffffffffffffffffffffff1673ffffffffffffffffffffffffffffffffffffffff161415610c53576040517f08c379a0000000000000000000000000000000000000000000000000000000008152600401610c4a906135ca565b60405180910390fd5b6001905092915050565b3373ffffffffffffffffffffffffffffffffffffffff1660686000606960003373ffffffffffffffffffffffffffffffffffffffff1673ffffffffffffffffffffffffffffffffffffffff16815260200190815260200160002060009054906101000a900473ffffffffffffffffffffffffffffffffffffffff1673ffffffffffffffffffffffffffffffffffffffff1673ffffffffffffffffffffffffffffffffffffffff16815260200190815260200160002060009054906101000a900473ffffffffffffffffffffffffffffffffffffffff1673ffffffffffffffffffffffffffffffffffffffff1614610d89576040517f08c379a0000000000000000000000000000000000000000000000000000000008152600401610d809061368a565b60405180910390fd5b6000606960003373ffffffffffffffffffffffffffffffffffffffff1673ffffffffffffffffffffffffffffffffffffffff16815260200190815260200160002060009054906101000a900473ffffffffffffffffffffffffffffffffffffffff1690508073ffffffffffffffffffffffffffffffffffffffff16606960008473ffffffffffffffffffffffffffffffffffffffff1673ffffffffffffffffffffffffffffffffffffffff16815260200190815260200160002060009054906101000a900473ffffffffffffffffffffffffffffffffffffffff1673ffffffffffffffffffffffffffffffffffffffff1614610eba576040517f08c379a0000000000000000000000000000000000000000000000000000000008152600401610eb19061376a565b60405180910390fd5b81606860008373ffffffffffffffffffffffffffffffffffffffff1673ffffffffffffffffffffffffffffffffffffffff16815260200190815260200160002060006101000a81548173ffffffffffffffffffffffffffffffffffffffff021916908373ffffffffffffffffffffffffffffffffffffffff1602179055507f325abfca58119f9dec552cd3c96906dc876e515a247080eb489ed67e4f1acfdd8183604051610f6992919061344d565b60405180910390a15050565b60675481565b606c6020528060005260406000206000915054906101000a900460ff1681565b610fa361277f565b73ffffffffffffffffffffffffffffffffffffffff16610fc1611d22565b73ffffffffffffffffffffffffffffffffffffffff1614611017576040517f08c379a000000000000000000000000000000000000000000000000000000000815260040161100e906136ea565b60405180910390fd5b6110556040518060400160405280600f81526020017f73657441747461636b57696e646f770000000000000000000000000000000000815250612787565b806066819055507f2f8c31a5d1a0a6dec82499c709c5b976450a5159c24bc248123b173f9ac475018160405161108b91906137aa565b60405180910390a150565b600060011515606c6000606d60003373ffffffffffffffffffffffffffffffffffffffff1673ffffffffffffffffffffffffffffffffffffffff16815260200190815260200160002060009054906101000a900473ffffffffffffffffffffffffffffffffffffffff1673ffffffffffffffffffffffffffffffffffffffff1673ffffffffffffffffffffffffffffffffffffffff16815260200190815260200160002060009054906101000a900460ff1615151461118a576040517f08c379a00000000000000000000000000000000000000000000000000000000081526004016111819061364a565b60405180910390fd5b606b60009054906101000a900473ffffffffffffffffffffffffffffffffffffffff16606860008473ffffffffffffffffffffffffffffffffffffffff1673ffffffffffffffffffffffffffffffffffffffff16815260200190815260200160002060006101000a81548173ffffffffffffffffffffffffffffffffffffffff021916908373ffffffffffffffffffffffffffffffffffffffff1602179055507f86b6b00c2c814fed47d22995306f14379ab2f96b9a556428f89ef2f1ab7b46c7826040516112599190613432565b60405180910390a160019050919050565b61127261277f565b73ffffffffffffffffffffffffffffffffffffffff16611290611d22565b73ffffffffffffffffffffffffffffffffffffffff16146112e6576040517f08c379a00000000000000000000000000000000000000000000000000000000081526004016112dd906136ea565b60405180910390fd5b806067819055507f8576a6dd0cb347b510a74d083f8973816ce21575177d7a0da49ab0230be9ed288160405161131c91906137aa565b60405180910390a150565b606e6020528060005260406000206000915054906101000a900460ff1681565b606d6020528060005260406000206000915054906101000a900473ffffffffffffffffffffffffffffffffffffffff1681565b6000606960003373ffffffffffffffffffffffffffffffffffffffff1673ffffffffffffffffffffffffffffffffffffffff16815260200190815260200160002060009054906101000a900473ffffffffffffffffffffffffffffffffffffffff16905090565b600073ffffffffffffffffffffffffffffffffffffffff16606960003373ffffffffffffffffffffffffffffffffffffffff1673ffffffffffffffffffffffffffffffffffffffff16815260200190815260200160002060009054906101000a900473ffffffffffffffffffffffffffffffffffffffff1673ffffffffffffffffffffffffffffffffffffffff16146114af576040517f08c379a00000000000000000000000000000000000000000000000000000000081526004016114a69061378a565b60405180910390fd5b80606a60003373ffffffffffffffffffffffffffffffffffffffff1673ffffffffffffffffffffffffffffffffffffffff16815260200190815260200160002060006101000a81548173ffffffffffffffffffffffffffffffffffffffff021916908373ffffffffffffffffffffffffffffffffffffffff16021790555050565b606560019054906101000a900473ffffffffffffffffffffffffffffffffffffffff1681565b60011515606e60003373ffffffffffffffffffffffffffffffffffffffff1673ffffffffffffffffffffffffffffffffffffffff16815260200190815260200160002060009054906101000a900460ff161515146115e9576040517f08c379a00000000000000000000000000000000000000000000000000000000081526004016115e09061362a565b60405180910390fd5b606e60003373ffffffffffffffffffffffffffffffffffffffff1673ffffffffffffffffffffffffffffffffffffffff16815260200190815260200160002060006101000a81549060ff02191690557fe650729918d1feefffb934d3577cd55650d7b4ca398097259a8daeccf2db702833600060405161166a9291906134e4565b60405180910390a1565b3373ffffffffffffffffffffffffffffffffffffffff1660686000606960003373ffffffffffffffffffffffffffffffffffffffff1673ffffffffffffffffffffffffffffffffffffffff16815260200190815260200160002060009054906101000a900473ffffffffffffffffffffffffffffffffffffffff1673ffffffffffffffffffffffffffffffffffffffff1673ffffffffffffffffffffffffffffffffffffffff16815260200190815260200160002060009054906101000a900473ffffffffffffffffffffffffffffffffffffffff1673ffffffffffffffffffffffffffffffffffffffff16146117a0576040517f08c379a00000000000000000000000000000000000000000000000000000000081526004016117979061368a565b60405180910390fd5b3373ffffffffffffffffffffffffffffffffffffffff168173ffffffffffffffffffffffffffffffffffffffff16141561180f576040517f08c379a00000000000000000000000000000000000000000000000000000000081526004016118069061358a565b60405180910390fd5b606960008273ffffffffffffffffffffffffffffffffffffffff1673ffffffffffffffffffffffffffffffffffffffff16815260200190815260200160002060009054906101000a900473ffffffffffffffffffffffffffffffffffffffff1673ffffffffffffffffffffffffffffffffffffffff16606960003373ffffffffffffffffffffffffffffffffffffffff1673ffffffffffffffffffffffffffffffffffffffff16815260200190815260200160002060009054906101000a900473ffffffffffffffffffffffffffffffffffffffff1673ffffffffffffffffffffffffffffffffffffffff161461193b576040517f08c379a00000000000000000000000000000000000000000000000000000000081526004016119329061374a565b60405180910390fd5b606960008273ffffffffffffffffffffffffffffffffffffffff1673ffffffffffffffffffffffffffffffffffffffff16815260200190815260200160002060006101000a81549073ffffffffffffffffffffffffffffffffffffffff02191690557f364f10d572789f2dfbe5322f48ed727836dc827bd29324cb1e17f90c7c04c6d9606960003373ffffffffffffffffffffffffffffffffffffffff1673ffffffffffffffffffffffffffffffffffffffff16815260200190815260200160002060009054906101000a900473ffffffffffffffffffffffffffffffffffffffff16826000604051611a30939291906134ad565b60405180910390a150565b611a4361277f565b73ffffffffffffffffffffffffffffffffffffffff16611a61611d22565b73ffffffffffffffffffffffffffffffffffffffff1614611ab7576040517f08c379a0000000000000000000000000000000000000000000000000000000008152600401611aae906136ea565b60405180910390fd5b611ac16000612820565b565b600060011515606c60003373ffffffffffffffffffffffffffffffffffffffff1673ffffffffffffffffffffffffffffffffffffffff16815260200190815260200160002060009054906101000a900460ff16151514611b58576040517f08c379a0000000000000000000000000000000000000000000000000000000008152600401611b4f9061356a565b60405180910390fd5b33606d60008573ffffffffffffffffffffffffffffffffffffffff1673ffffffffffffffffffffffffffffffffffffffff16815260200190815260200160002060006101000a81548173ffffffffffffffffffffffffffffffffffffffff021916908373ffffffffffffffffffffffffffffffffffffffff1602179055507fd02da1bec30f7f750aa0a131745dfb9ce96767c45a192dc26409f5d690e0b967838333604051611c0993929190613476565b60405180910390a16001905092915050565b611c236128e6565b611c616040518060400160405280600681526020017f7364667364660000000000000000000000000000000000000000000000000000815250612787565b6003606560006101000a81548160ff021916908360ff160217905550611c85611d22565b606560016101000a81548173ffffffffffffffffffffffffffffffffffffffff021916908373ffffffffffffffffffffffffffffffffffffffff160217905550610708606681905550610e10606781905550676578706c6f646564606b60006101000a81548173ffffffffffffffffffffffffffffffffffffffff021916908373ffffffffffffffffffffffffffffffffffffffff160217905550565b6000603360009054906101000a900473ffffffffffffffffffffffffffffffffffffffff16905090565b600060686000606960003373ffffffffffffffffffffffffffffffffffffffff1673ffffffffffffffffffffffffffffffffffffffff16815260200190815260200160002060009054906101000a900473ffffffffffffffffffffffffffffffffffffffff1673ffffffffffffffffffffffffffffffffffffffff1673ffffffffffffffffffffffffffffffffffffffff16815260200190815260200160002060009054906101000a900473ffffffffffffffffffffffffffffffffffffffff16905090565b611e1a61277f565b73ffffffffffffffffffffffffffffffffffffffff16611e38611d22565b73ffffffffffffffffffffffffffffffffffffffff1614611e8e576040517f08c379a0000000000000000000000000000000000000000000000000000000008152600401611e85906136ea565b60405180910390fd5b80606560006101000a81548160ff021916908360ff1602179055507f22fd2bd5dbd415f0702c9c3aea01c7ba1fc13b92d166b1a3533cf530c82bff5e81604051611ed891906137c5565b60405180910390a150565b611eeb61277f565b73ffffffffffffffffffffffffffffffffffffffff16611f09611d22565b73ffffffffffffffffffffffffffffffffffffffff1614611f5f576040517f08c379a0000000000000000000000000000000000000000000000000000000008152600401611f56906136ea565b60405180910390fd5b80606c60008473ffffffffffffffffffffffffffffffffffffffff1673ffffffffffffffffffffffffffffffffffffffff16815260200190815260200160002060006101000a81548160ff0219169083151502179055507fec48c4a53bc66a4375656467c692f9cda3ab5fc839e0e99add20936b745e60558282604051611fe79291906134e4565b60405180910390a15050565b6000606960003373ffffffffffffffffffffffffffffffffffffffff1673ffffffffffffffffffffffffffffffffffffffff16815260200190815260200160002060009054906101000a900473ffffffffffffffffffffffffffffffffffffffff169050600073ffffffffffffffffffffffffffffffffffffffff168173ffffffffffffffffffffffffffffffffffffffff1614156120c7576040517f08c379a00000000000000000000000000000000000000000000000000000000081526004016120be906135ea565b60405180910390fd5b6000606860008373ffffffffffffffffffffffffffffffffffffffff1673ffffffffffffffffffffffffffffffffffffffff16815260200190815260200160002060009054906101000a900473ffffffffffffffffffffffffffffffffffffffff1690503373ffffffffffffffffffffffffffffffffffffffff168173ffffffffffffffffffffffffffffffffffffffff16141561219a576040517f08c379a0000000000000000000000000000000000000000000000000000000008152600401612191906135aa565b60405180910390fd5b606960003373ffffffffffffffffffffffffffffffffffffffff1673ffffffffffffffffffffffffffffffffffffffff16815260200190815260200160002060006101000a81549073ffffffffffffffffffffffffffffffffffffffff02191690557f364f10d572789f2dfbe5322f48ed727836dc827bd29324cb1e17f90c7c04c6d982336000604051612230939291906134ad565b60405180910390a15050565b6001606e60003373ffffffffffffffffffffffffffffffffffffffff1673ffffffffffffffffffffffffffffffffffffffff16815260200190815260200160002060006101000a81548160ff0219169083151502179055507fe650729918d1feefffb934d3577cd55650d7b4ca398097259a8daeccf2db70283360016040516122c69291906134e4565b60405180910390a1565b606560009054906101000a900460ff1681565b6122eb61277f565b73ffffffffffffffffffffffffffffffffffffffff16612309611d22565b73ffffffffffffffffffffffffffffffffffffffff161461235f576040517f08c379a0000000000000000000000000000000000000000000000000000000008152600401612356906136ea565b60405180910390fd5b80606560016101000a81548173ffffffffffffffffffffffffffffffffffffffff021916908373ffffffffffffffffffffffffffffffffffffffff1602179055507fafa147634b29e2c7bd53ce194256b9f41cfb9ba3036f2b822fdd1d965beea086816040516123cf9190613432565b60405180910390a150565b60008073ffffffffffffffffffffffffffffffffffffffff168273ffffffffffffffffffffffffffffffffffffffff16141561244b576040517f08c379a00000000000000000000000000000000000000000000000000000000081526004016124429061366a565b60405180910390fd5b600073ffffffffffffffffffffffffffffffffffffffff16606960008473ffffffffffffffffffffffffffffffffffffffff1673ffffffffffffffffffffffffffffffffffffffff16815260200190815260200160002060009054906101000a900473ffffffffffffffffffffffffffffffffffffffff1673ffffffffffffffffffffffffffffffffffffffff1614612519576040517f08c379a00000000000000000000000000000000000000000000000000000000081526004016125109061354a565b60405180910390fd5b6000824260405160200161252e929190613406565b6040516020818303038152906040528051906020012060001c905082606860008373ffffffffffffffffffffffffffffffffffffffff1673ffffffffffffffffffffffffffffffffffffffff16815260200190815260200160002060006101000a81548173ffffffffffffffffffffffffffffffffffffffff021916908373ffffffffffffffffffffffffffffffffffffffff16021790555080606960008573ffffffffffffffffffffffffffffffffffffffff1673ffffffffffffffffffffffffffffffffffffffff16815260200190815260200160002060006101000a81548173ffffffffffffffffffffffffffffffffffffffff021916908373ffffffffffffffffffffffffffffffffffffffff1602179055507f4bbb10c11c6c8c35689f097fa303b69ba45da8472d34886663ebbf3b1a42ce28818460405161267692919061344d565b60405180910390a180915050919050565b61268f61277f565b73ffffffffffffffffffffffffffffffffffffffff166126ad611d22565b73ffffffffffffffffffffffffffffffffffffffff1614612703576040517f08c379a00000000000000000000000000000000000000000000000000000000081526004016126fa906136ea565b60405180910390fd5b600073ffffffffffffffffffffffffffffffffffffffff168173ffffffffffffffffffffffffffffffffffffffff161415612773576040517f08c379a000000000000000000000000000000000000000000000000000000000815260040161276a9061360a565b60405180910390fd5b61277c81612820565b50565b600033905090565b61281d8160405160240161279b9190613528565b6040516020818303038152906040527f41304fac000000000000000000000000000000000000000000000000000000007bffffffffffffffffffffffffffffffffffffffffffffffffffffffff19166020820180517bffffffffffffffffffffffffffffffffffffffffffffffffffffffff83818316178352505050506129cf565b50565b6000603360009054906101000a900473ffffffffffffffffffffffffffffffffffffffff16905081603360006101000a81548173ffffffffffffffffffffffffffffffffffffffff021916908373ffffffffffffffffffffffffffffffffffffffff1602179055508173ffffffffffffffffffffffffffffffffffffffff168173ffffffffffffffffffffffffffffffffffffffff167f8be0079c531659141344cd1fd0a4f28419497f9722a3daafe3b4186f6b6457e060405160405180910390a35050565b600060019054906101000a900460ff168061290c575060008054906101000a900460ff16155b61294b576040517f08c379a0000000000000000000000000000000000000000000000000000000008152600401612942906136aa565b60405180910390fd5b60008060019054906101000a900460ff16159050801561299b576001600060016101000a81548160ff02191690831515021790555060016000806101000a81548160ff0219169083151502179055505b6129a36129f8565b6129ab612ad1565b80156129cc5760008060016101000a81548160ff0219169083151502179055505b50565b60008151905060006a636f6e736f6c652e6c6f679050602083016000808483855afa5050505050565b600060019054906101000a900460ff1680612a1e575060008054906101000a900460ff16155b612a5d576040517f08c379a0000000000000000000000000000000000000000000000000000000008152600401612a54906136aa565b60405180910390fd5b60008060019054906101000a900460ff161590508015612aad576001600060016101000a81548160ff02191690831515021790555060016000806101000a81548160ff0219169083151502179055505b8015612ace5760008060016101000a81548160ff0219169083151502179055505b50565b600060019054906101000a900460ff1680612af7575060008054906101000a900460ff16155b612b36576040517f08c379a0000000000000000000000000000000000000000000000000000000008152600401612b2d906136aa565b60405180910390fd5b60008060019054906101000a900460ff161590508015612b86576001600060016101000a81548160ff02191690831515021790555060016000806101000a81548160ff0219169083151502179055505b612b96612b9161277f565b612820565b8015612bb75760008060016101000a81548160ff0219169083151502179055505b50565b600081359050612bc9816138d0565b92915050565b600081359050612bde816138e7565b92915050565b600081359050612bf3816138fe565b92915050565b600081359050612c0881613915565b92915050565b600060208284031215612c2057600080fd5b6000612c2e84828501612bba565b91505092915050565b60008060408385031215612c4a57600080fd5b6000612c5885828601612bba565b9250506020612c6985828601612bba565b9150509250929050565b60008060408385031215612c8657600080fd5b6000612c9485828601612bba565b9250506020612ca585828601612bcf565b9150509250929050565b600060208284031215612cc157600080fd5b6000612ccf84828501612be4565b91505092915050565b600060208284031215612cea57600080fd5b6000612cf884828501612bf9565b91505092915050565b612d0a816137fc565b82525050565b612d21612d1c826137fc565b613884565b82525050565b612d308161380e565b82525050565b6000612d41826137e0565b612d4b81856137eb565b9350612d5b818560208601613851565b612d64816138b2565b840191505092915050565b6000612d7c6027836137eb565b91507f4164647265737320697320616c726561647920616e206f776e6572206f72206460008301527f656c6567617465000000000000000000000000000000000000000000000000006020830152604082019050919050565b6000612de2601c836137eb565b91507f506f6f6c20666163746f7279206973206e6f7420617070726f766564000000006000830152602082019050919050565b6000612e226015836137eb565b91507f43616e6e6f742072656d6f7665206f6e6573656c6600000000000000000000006000830152602082019050919050565b6000612e62601c836137eb565b91507f43616e6e6f742072656d6f7665206964656e74697479206f776e6572000000006000830152602082019050919050565b6000612ea26021836137eb565b91507f5570616c613a2054686520696420697320616c7265616479206578706c6f646560008301527f64000000000000000000000000000000000000000000000000000000000000006020830152604082019050919050565b6000612f086012836137eb565b91507f4d75737420626520612064656c656761746500000000000000000000000000006000830152602082019050919050565b6000612f486026836137eb565b91507f4f776e61626c653a206e6577206f776e657220697320746865207a65726f206160008301527f64647265737300000000000000000000000000000000000000000000000000006020830152604082019050919050565b6000612fae6016836137eb565b91507f44417070206973206e6f742072656769737465726564000000000000000000006000830152602082019050919050565b6000612fee6022836137eb565b91507f506172656e7420706f6f6c20666163746f727920697320646973617070726f7660008301527f65640000000000000000000000000000000000000000000000000000000000006020830152604082019050919050565b6000613054601a836137eb565b91507f43616e6e6f742075736520616e20656d707479206164646573730000000000006000830152602082019050919050565b60006130946030836137eb565b91507f4f6e6c79206964656e7469747920686f6c6465722063616e20616464206f722060008301527f72656d6f76652064656c656761746573000000000000000000000000000000006020830152604082019050919050565b60006130fa602e836137eb565b91507f496e697469616c697a61626c653a20636f6e747261637420697320616c72656160008301527f647920696e697469616c697a65640000000000000000000000000000000000006020830152604082019050919050565b60006131606027836137eb565b91507f44656c656761746565206d75737420636f6e6669726d2064656c65676174696f60008301527f6e206669727374000000000000000000000000000000000000000000000000006020830152604082019050919050565b60006131c66020836137eb565b91507f4f776e61626c653a2063616c6c6572206973206e6f7420746865206f776e65726000830152602082019050919050565b6000613206603b836137eb565b91507f5570616c613a204e6f20737563682069642c206e6f7420616e206f776e65722060008301527f6f72206e6f7420612064656c6567617465206f662074686520696400000000006020830152604082019050919050565b600061326c6022836137eb565b91507f43616e6e6f7420617070726f7665206f6e6573656c662061732064656c65676160008301527f74650000000000000000000000000000000000000000000000000000000000006020830152604082019050919050565b60006132d2602e836137eb565b91507f5570616c614964206d7573742062652073616d6520666f722064656c6567617460008301527f6520616e64206964206f776e65720000000000000000000000000000000000006020830152604082019050919050565b6000613338602d836137eb565b91507f41646472657373206973206e6f7420612064656c656761746520666f7220637560008301527f7272656e74205570616c614964000000000000000000000000000000000000006020830152604082019050919050565b600061339e6012836137eb565b91507f416c726561647920612064656c656761746500000000000000000000000000006000830152602082019050919050565b6133da8161383a565b82525050565b6133f16133ec8261383a565b6138a8565b82525050565b61340081613844565b82525050565b60006134128285612d10565b60148201915061342282846133e0565b6020820191508190509392505050565b60006020820190506134476000830184612d01565b92915050565b60006040820190506134626000830185612d01565b61346f6020830184612d01565b9392505050565b600060608201905061348b6000830186612d01565b6134986020830185612d01565b6134a56040830184612d01565b949350505050565b60006060820190506134c26000830186612d01565b6134cf6020830185612d01565b6134dc6040830184612d27565b949350505050565b60006040820190506134f96000830185612d01565b6135066020830184612d27565b9392505050565b60006020820190506135226000830184612d27565b92915050565b600060208201905081810360008301526135428184612d36565b905092915050565b6000602082019050818103600083015261356381612d6f565b9050919050565b6000602082019050818103600083015261358381612dd5565b9050919050565b600060208201905081810360008301526135a381612e15565b9050919050565b600060208201905081810360008301526135c381612e55565b9050919050565b600060208201905081810360008301526135e381612e95565b9050919050565b6000602082019050818103600083015261360381612efb565b9050919050565b6000602082019050818103600083015261362381612f3b565b9050919050565b6000602082019050818103600083015261364381612fa1565b9050919050565b6000602082019050818103600083015261366381612fe1565b9050919050565b6000602082019050818103600083015261368381613047565b9050919050565b600060208201905081810360008301526136a381613087565b9050919050565b600060208201905081810360008301526136c3816130ed565b9050919050565b600060208201905081810360008301526136e381613153565b9050919050565b60006020820190508181036000830152613703816131b9565b9050919050565b60006020820190508181036000830152613723816131f9565b9050919050565b600060208201905081810360008301526137438161325f565b9050919050565b60006020820190508181036000830152613763816132c5565b9050919050565b600060208201905081810360008301526137838161332b565b9050919050565b600060208201905081810360008301526137a381613391565b9050919050565b60006020820190506137bf60008301846133d1565b92915050565b60006020820190506137da60008301846133f7565b92915050565b600081519050919050565b600082825260208201905092915050565b60006138078261381a565b9050919050565b60008115159050919050565b600073ffffffffffffffffffffffffffffffffffffffff82169050919050565b6000819050919050565b600060ff82169050919050565b60005b8381101561386f578082015181840152602081019050613854565b8381111561387e576000848401525b50505050565b600061388f82613896565b9050919050565b60006138a1826138c3565b9050919050565b6000819050919050565b6000601f19601f8301169050919050565b60008160601b9050919050565b6138d9816137fc565b81146138e457600080fd5b50565b6138f08161380e565b81146138fb57600080fd5b50565b6139078161383a565b811461391257600080fd5b50565b61391e81613844565b811461392957600080fd5b5056fea26469706673582212207a990e5f27ce03aac1d043cd6495039c8c472358682deffcb92315eadf565a8264736f6c63430008000033",
  "linkReferences": {},
  "deployedLinkReferences": {}
}